:020000040800F2
:10000000A004002045010008391200083B12000836
:100010003F120008431200084712000800000000C9
:100020000000000000000000000000004B1200086B
:100030004D120008000000004F1200085112000885
:100040005F0100085F0100085F0100085F01000810
:100050005F0100085F0100085F0100085F01000800
:100060005F0100085F0100085F0100085F010008F0
:100070005F0100085F0100085F0100085F010008E0
:100080005F0100085F0100085F0100085F010008D0
:100090005F0100085F0100085F0100085F010008C0
:1000A0005F0100085F0100085F0100085F010008B0
:1000B0005F0100085F0100085F0100085F010008A0
:1000C0005F0100085F0100085F0100085F01000890
:1000D0005F010008531200085F0100085F0100087B
:1000E0005F0100085F0100085F0100085F01000870
:1000F0005F0100085F0100085F0100085F01000860
:100100005F0100085F0100085F0100085F0100084F
:10011000F11300085F0100085F0100085F0100089B
:100120005F0100085F0100085F0100085F0100082F
:10013000DFF80CD001F0DAFE00480047F1140008A7
:10014000A00400200648804706480047FEE7FEE777
:10015000FEE7FEE7FEE7FEE7FEE7FEE7FEE7FEE777
:1001600047020008310100080CB500200190009002
:100170006C48006840F480306A49086000BF6948F4
:10018000006800F4003000900198401C0190009835
:1001900018B90198B0F5A06FF1D16248006800F479
:1001A000003010B10120009001E000200090009884
:1001B000012843D15C48006840F010005A490860AB
:1001C0000846006820F0030008600846006840F018
:1001D0000200086053484068524948600846406839
:1001E00048600846406840F48060486008464068BF
:1001F00020F47C1048600846406840F4E8104860ED
:100200000846006840F08070086000BF45480068FC
:1002100000F000700028F9D04248406820F0030048
:10022000404948600846406840F00200486000BF0E
:100230003C48406800F00C000828F9D10CBD10B50E
:10024000FFF792FF10BD10B53648006840F001007E
:1002500034490860084640683449084031494860DC
:1002600008460068324908402E4908600846006880
:1002700020F4802008600846406820F4FE004860B2
:100280004FF41F008860FFF7DAFF4FF00060294944
:10029000086010BD10B5002100200022214B5B68D2
:1002A00003F00C0121B1042906D0082928D107E068
:1002B000214B224C236027E01F4B204C236023E07E
:1002C000184B5B6803F47010164B5B6803F48032C4
:1002D000022303EB904022B9194B4343174C236090
:1002E0000DE0104B5B6803F4003323B1144B434320
:1002F000124C236003E0104B4343104C236003E097
:100300000D4B0E4C236000BF00BF064B5B68C3F370
:1003100003130C4CE15C094B1B68CB40074C23607A
:1003200010BD000000100240002002400000FFF855
:10033000FFFFF6FE08ED00E000127A00000000204A
:1003400000093D000400002031490143314A116099
:10035000704770B5002100230F22C47804B32D4CE0
:10036000246804F4E064C4F5E064210AC1F10403E4
:10037000CA40447804FA03F1847814402143090107
:10038000254C0678A155047804F01F050124AC40E3
:1003900005786D11AD0005F1E025C5F8004109E0D3
:1003A000047804F01F050124AC401C4D067876113A
:1003B00045F8264070BD1A4A0A400243154B1B1FE0
:1003C0001A60704739B1134A121D12680243114B6B
:1003D0001B1D1A6006E00F4A121D126882430D4B66
:1003E0001B1D1A607047042808D14FF0E0210969ED
:1003F00041F004014FF0E022116107E04FF0E021ED
:10040000096921F004014FF0E022116170470000FA
:100410000000FA050CED00E000E400E080E100E0FF
:1004200080FFFF1F10B50446CC48844208D101214B
:10043000042000F02DFB0021042000F029FB46E001
:10044000C748844208D10121082000F021FB002187
:10045000082000F01DFB3AE0C248844208D1012187
:10046000102000F015FB0021102000F011FB2EE001
:10047000BD48844208D10121202000F009FB002161
:10048000202000F005FB22E0B848844208D1012179
:10049000402000F0FDFA0021402000F0F9FA16E0BB
:1004A000B348844208D10121802000F0F1FA0021F4
:1004B000802000F0EDFA0AE0AE48844207D1012125
:1004C000801500F0E5FA0021A01500F0E1FA10BD5A
:1004D00010B50121084600F0DBFA0021012000F0F0
:1004E000D7FA10BD2DE9F041024600250026002074
:1004F00000230024002791F803C00CF00F0591F8A9
:1005000003C00CF0100CBCF1000F03D091F802C036
:100510004CEA050591F800C0BCF1000F31D0146819
:1005200000202BE04FF0010C0CFA00F3B1F800C0F2
:100530000CEA03069E4220D183004FF00F0C0CFA08
:1005400003F7BC4305FA03FC4CEA040491F803C02A
:10055000BCF1280F06D14FF0010C0CFA00FCC2F8D8
:1005600014C00AE091F803C0BCF1480F05D14FF068
:10057000010C0CFA00FCC2F810C0401C0828D1D3B2
:100580001460B1F800C0BCF1FF0F34DD54680020E6
:100590002EE000F1080C4FF0010808FA0CF3B1F856
:1005A00000C00CEA03069E4221D183004FF00F0CDD
:1005B0000CFA03F7BC4305FA03FC4CEA040491F877
:1005C00003C0BCF1280F05D100F1080C08FA0CF8A3
:1005D000C2F8148091F803C0BCF1480F07D100F1B4
:1005E000080C4FF0010808FA0CF8C2F81080401C03
:1005F0000828CED35460BDE8F0814FF6FF7101802A
:10060000022181700421C170704702460020936866
:100610000B400BB1012000E00020704701468868C4
:1006200080B2704702460020D3680B400BB1012016
:1006300000E0002070470146C86880B27047016141
:100640007047416170470AB1016100E04161704744
:10065000C16070474FF480320A43826181618261D8
:1006600082698269704702460020434B18684FF642
:100670008073184040EA021008433F4B18607047EF
:100680003E49C8617047F0B50A46002300240021A6
:10069000002500F00046B6F1004F02D1364EF16958
:1006A00001E0354E7168C0F3034583B200F4401693
:1006B000B6F5401F08D121F070612F4E766826F004
:1006C00070662D4F7E6012E000F48016B6F5801F34
:1006D00006D1032606FA05F4A14341F0706106E055
:1006E000460D360103FA06F6B14341F0706122B1BE
:1006F000460D360103FA06F6314300F00046B6F126
:10070000004F02D11C4EF16101E01B4E7160F0BD43
:1007100030B500228B071C0F0F2303FA04F2164B8F
:1007200008338C1053F824309343134C08348D1045
:1007300044F8253023468C1053F824308C07240FBE
:1007400000FA04F423430C4C08348D1044F825308F
:1007500030BD0A49DC3108607047000000080140E4
:10076000000C01400010014000140140001801403D
:10077000001C014000200140000001400000204218
:10078000DF48006840F00100DD4908600846406825
:10079000DC490840DA49486008460068DA49084000
:1007A000D74908600846006820F4802008600846A1
:1007B000406820F4FE0048604FF41F0088607047D6
:1007C000CF49096821F48031CD4A1160114609688A
:1007D00021F480211160B0F5803F03D0B0F5802F67
:1007E0000ED106E0C649096841F48031C44A11605F
:1007F00007E0C349096841F4A021C14A116000E043
:1008000000BF00BF704710B5014600220023002042
:100810004A11012A02D1BA4C236806E0022A02D109
:10082000B74C236A01E0B64C636A01F01F02012451
:1008300094401C400CB1012000E0002010BD38B5F0
:10084000002000900024002500BF3120FFF7DBFFCF
:1008500005460098401C00900098B0F5A06F01D0AC
:10086000002DF2D03120FFF7CEFF08B1012400E0C7
:100870000024204638BD01460020A14A106820F01F
:10088000F80040EAC10010607047A0490860704756
:10089000024600209A4B586820F47C1042EA01037B
:1008A0001843974B5860704798490866704701464F
:1008B0000020934A506820F00300084350607047BE
:1008C0008F48406800F00C007047014600208C4AB9
:1008D000506820F0F0000843506070470146002047
:1008E000874A506820F4E060084350607047014632
:1008F0000020834A506820F4605040EAC1005060F4
:10090000704729B17E4A527A02437D4B5A7204E005
:100910007B4A527A82437A4B5A7270477B49D8316C
:100920000860704701460020754A506820F4404036
:100930000843506070470021714A20321170704A9C
:1009400082F82010012802D004280AD104E00121F5
:100950006B4A2032117005E00521694A203211707E
:1009600000E000BF00BF70476949086070476449F4
:10097000096A0143624A1162704765494439086057
:10098000704730B500210022002400235C4D6D68C3
:1009900005F00C0121B1042905D0082923D105E077
:1009A0005C4D056022E05B4D05601FE0544D6D68B5
:1009B00005F47012524D6D6805F48034022505EB84
:1009C00092421CB9544D554305600BE04C4D6D6887
:1009D00005F400351DB1504D5543056002E04D4D05
:1009E0005543056002E04B4D056000BF00BF444D1C
:1009F0006D6805F0F0010909484D6B5C0568DD4044
:100A000045603F4D6D6805F4E061090A434D6B5C3C
:100A10004568DD4085603A4D6D6805F46051C90A4E
:100A20003E4D6B5C4568DD40C560354D6D6805F435
:100A30004041890B3A4D6B5CC568B5FBF3F5056128
:100A400030BD29B12E4A526902432D4B5A6104E050
:100A50002B4A526982432A4B5A61704729B1284A6E
:100A600092690243264B9A6104E0254A92698243C7
:100A7000234B9A61704729B1214AD2690243204B26
:100A8000DA6104E01E4AD26982431D4BDA61704785
:100A900029B11B4AD2680243194BDA6004E0184AB4
:100AA000D2688243164BDA60704729B1144A126942
:100AB0000243134B1A6104E0114A12698243104B3E
:100AC0001A61704712494039086070470F49C8647D
:100AD00070470B49C87170470948406A40F0807000
:100AE00007494862704701460020054A92680A405B
:100AF0000AB1012000E00020704701498872704768
:100B0000001002400000FFF8FFFFF6FE0000424226
:100B10008004424200127A0000093D0014000020C7
:100B20002400002010B50446BE48844208D10121AB
:100B30008014FFF7ADFF0021A014FFF7A9FF16E016
:100B4000B948844208D101210014FFF7AEFF00210B
:100B50002014FFF7AAFF0AE0B448844207D101211C
:100B6000C013FFF7A2FF0021E013FFF79EFF10BDA7
:100B700010B50022028802F441520B884C882343AE
:100B80008C882343CC8823430C8923434C892343FB
:100B90008C892343CC8923431A430280838B4FF2F1
:100BA000FF74234083830B8A038210BD2DE9F04F2D
:100BB00085B005460C464FF0000902274FF00008AB
:100BC0004FF0010B0026B246A88B4FF240010840BF
:100BD000A88302202884B5F81C90A068022801D1BF
:100BE00000BF38E0A08810B94FF0010B01E04FF0D2
:100BF000020B8D48854200D100E000BF6846FFF738
:100C0000C0FEDDF800A0E088B0F5007F0AD14FEA11
:100C10001A2000EB80004000A168B0FBF1F0401DFD
:100C200086B20BE04FEA4B10BAFBF0F000EB80000D
:100C30004000A168B0FBF1F0401D86B20A20B6FB6F
:100C4000F0F606F00108A6EB0800C0F34F074FF6D8
:100C5000FF7000EA0828022F01DBFF2F02DD0227C8
:100C60004FF00008E08840EA080038432884A08854
:100C7000A1890843618808432188084340F4006043
:100C800040EA0909A5F81C9005B0BDE8F08F0021E5
:100C9000018041808180C180018141818181C18148
:100CA0000721018270470021018041808180C1803D
:100CB0000221816000218181704721B1028842F0C8
:100CC0004002028004E002884FF6BF731A4002809F
:100CD000704721B1828B42F48062828304E0828B70
:100CE0004FF6FF331A408283704730B5002400234B
:100CF0000C110125A540ABB21AB185881D43858032
:100D000002E085889D43858030BD1AB183880B43FE
:100D1000838002E083888B438380704781817047A2
:100D20000146888970474FF6FF62914204D00288DD
:100D300042F48072028004E002884FF6FF631A409A
:100D40000280704721B1828842F00402828004E070
:100D500082884FF6FB731A408280704702884FF2F8
:100D6000FF731A40028002880A430280704701889C
:100D700041F480510180704721B1028842F4005251
:100D8000028004E002884DF6FF731A40028070472B
:100D900002460020012901D0108B00E0908A7047A4
:100DA0000146088A7047B1F5804F04D1028842F4A9
:100DB0008042028004E002884BF6FF731A400280F2
:100DC00070470246002013890B400BB1012000E060
:100DD00000207047CA4302817047F0B502460020E8
:100DE00000240023002501F00F070126BE40B4B205
:100DF0000B1101269E40B3B2968806EA03051689B8
:100E0000264016B10DB1012000E00020F0BD10B564
:100E1000002201F00F040123A3409AB2D3430381BF
:100E200010BD00000030014000380040003C004090
:100E300010B50446FB48844209D101218803FFF71D
:100E400027FE00214FF48040FFF722FE32E0F648F3
:100E5000844209D101214804FFF727FE00214FF405
:100E60000030FFF722FE25E0F048844209D101213D
:100E70008804FFF71AFE00214FF48020FFF715FECB
:100E800018E0EB48844209D10121C804FFF70DFEA8
:100E900000214FF40020FFF708FE0BE0E5488442F4
:100EA00008D101210805FFF700FE00214FF4801052
:100EB000FFF7FBFD10BD2DE9F04786B005460E4655
:100EC0000024A24600BFA1460027B08900B100BFA0
:100ED0002F462C8A4CF6FF700440F08804432C8285
:100EE000AC894EF6F3100440B0883189084371890B
:100EF00008430443AC81AC8A4FF6FF400440B089FC
:100F00000443AC8201A8FFF73CFDC648874202D1EA
:100F1000DDF810A001E0DDF80CA0A88900F4004085
:100F200040B10AEBCA0000EB0A1031684900B0FB7F
:100F3000F1F807E00AEBCA0000EB0A1031688900FB
:100F4000B0FBF1F86420B8FBF0F004012009642143
:100F500001FB1089A88900F4004040B1322000EB69
:100F6000C900B0FBF1F000F00700044308E03220B4
:100F700000EB09106421B0FBF1F000F00F00044316
:100F80002C8106B0BDE8F0874FF4165101600021B6
:100F90008180C18001810C214181002181817047C4
:100FA00010B502460020108A4FF2FF0318400B884C
:100FB0004C8823438C882343CC88234318431082D6
:100FC00010BD0021018041808180C180704721B126
:100FD000828942F40052828104E082894DF6FF73D7
:100FE0001A4082817047F0B5034600240026002590
:100FF000002040F66A17B94200D100BF1846C1F37D
:10100000421401F01F06012707FA06F5012C01D151
:101010000C3004E0022C01D1103000E014301AB181
:1010200007682F43076002E00768AF430760F0BD21
:101030001AB1838A0B43838202E0838A8B438382C3
:101040007047028A4FF6F0731A400282028A0A43FE
:101050000282704782894FF2FF731A40828182892F
:101060000A438281704721B1828942F00202828163
:1010700004E082894FF6FD731A4082817047028A2C
:101080004FF6DF731A400282028A0A4302827047D7
:1010900021B1028A42F48042028204E0028A4BF6C5
:1010A000FF731A4002827047C1F3080282807047C2
:1010B00001468888C0F308007047818941F001012A
:1010C00081817047028BD2B20283028B42EA0122F5
:1010D00002837047028B02F47F420283028B0A4331
:1010E0000283704721B1828A42F02002828204E0AA
:1010F000828A4FF6DF731A408282704721B1828A5A
:1011000042F01002828204E0828A4FF6EF731A40A6
:101110008282704721B1828A42F00802828204E012
:10112000828A4FF6F7731A408282704721B1828912
:1011300042F40042828103E08289C2F30E0282817E
:10114000704721B1828A42F40062828204E0828A7E
:101150004FF2FF731A4082827047828A4FF6FB7308
:101160001A408282828A0A438282704721B1828A2F
:1011700042F00202828204E0828A4FF6FD731A4036
:101180008282704702460020B1F5007F00D100BF87
:1011900013880B400BB1012000E00020704701F4E0
:1011A0000072B2F5007F00D100BFCA4302807047D1
:1011B00070B50246002400230025002040F66A1680
:1011C000B14200D100BFC1F3421501F01F03012657
:1011D00006FA03F3012D02D19689334006E0022D71
:1011E00002D1168A334001E0968A33400C12012660
:1011F00006FA04F41688344013B10CB1012000E063
:10120000002070BD10B50022002340F66A14A142F0
:1012100000D100BF0A1201249440A3B2DC43048031
:1012200010BD00000038014000440040004800406C
:10123000004C004000500040704700BFFEE700BF78
:10124000FEE700BFFEE700BFFEE77047704770474C
:1012500070472DE9F0410025002600272021754820
:10126000FFF790FF01287DD17248FFF721FFC4B23C
:1012700071480078022809DA6F4801780078401C2C
:101280006D4A10706D484454BDE8F0816A4800789A
:10129000022828D169480078122818D16748407878
:1012A000342814D1644801780078401C624A1070D8
:1012B00062484454624804700078642812DD61A0DA
:1012C00000F046FE012000F0A3F800F0A6F85B480D
:1012D0004278017866A000F03BFE012000F098F80B
:1012E00000F09BF8D0E754480078022875DD52489A
:1012F00000785349097888426FDA4F4801780078BE
:10130000401C4D4A10704D484454104600784C49DA
:101310000978884260D14A480078401E4749085CF5
:101320002F283FD146480078801E085C1F2839D1FD
:10133000022505E04148405D304486B2681CC5B2D4
:101340003F480078C01EA842F4DC3D480078C01E2B
:101350003A49085CB0421BD14E480068401C4D49D8
:10136000086000E039E04CA000F0F2FD002706E044
:10137000F81C324A115C4DA000F0EAFD7F1C304899
:101380000078801FB842F3DC41A000F0E1FD1AE0D4
:1013900047480078401C46490870314645A000F097
:1013A000D7FD10E042480078401C414908702448AD
:1013B0000078401E214B1A5C21480078801E195C81
:1013C00041A000F0C5FD002600201B4908706421E3
:1013D0001A4800F004FD00E056E740F22551154898
:1013E000FFF710FF20211348FFF7D9FE00BF4BE79E
:1013F00010B520213B48FFF7C5FE012807D1394829
:10140000FFF756FE044621460A48FFF74DFE10BD81
:1014100000F0010181F3138870473348006800F43D
:10142000E06032490843001D2F490860BFF34F8F29
:1014300000BFFEE700380140300000203C000020E3
:10144000310000204C656E204572726F7221204D74
:101450006F7265205468616E2031303021205379DD
:101460007374656D205265626F6F740D0A00000021
:10147000486561646572204572726F72202578201C
:1014800025782C53797374656D205265626F6F7483
:101490000D0A00002C0000205375636365737321EF
:1014A00020436F6E74656E743A000000257820004A
:1014B0002800002053756D204572726F72212053F1
:1014C000756D3D25780D0A005461696C2045727276
:1014D0006F7221205461696C3A25782025780D0AB5
:1014E00000000000004C00400CED00E00000FA0598
:1014F00000F0F9FB02A000F02BFD00BFFEE70000AA
:10150000576F726B696E670D0A00000000B587B0F7
:1015100001218803FFF7AFFA01210820FFF79EFAA7
:101520004FF48050ADF8040003208DF80600102021
:101530008DF8070001A9FC48FEF7D4FF4FF40050D6
:10154000ADF8040018208DF8070001A9F648FEF751
:10155000C9FF4FF48040ADF8040001A9F248FEF73E
:10156000C1FF4FF40040ADF8040001A9EE48FEF7BA
:10157000B9FF4FF48051EC48FFF761F80020ADF857
:1015800008004FF48270ADF80A000020ADF80C009E
:101590000220ADF80E000120ADF810004002ADF8B9
:1015A00012000820ADF814000020ADF81600072046
:1015B000ADF8180002A9DD48FFF7DAFA0121DB488F
:1015C000FFF77BFB07B000BD10B504462146D8A04D
:1015D00000F0BEFC002010BD10B504464FF4805052
:1015E000E04908600AE0DF490868411EDD4A1160F1
:1015F00020B90020FFF7E8FFC0B210BD0221CB48A0
:10160000FFF7DFFB0028EED02146C848FFF786FB36
:101610004FF48050D34908600AE0D2490868411E5F
:10162000D04A116020B90120FFF7CEFFC0B2E4E735
:101630000121BE48FFF7C5FB0028EED0BB48FFF7ED
:101640006FFBC0B2D9E710B500244FF48051B64803
:10165000FEF7F7FF0520FFF7BFFF00BFFF20FFF7F2
:10166000BBFF044604F001000028F7D14FF480517D
:10167000AD48FEF7E4FF10BD10B54FF48051AA4805
:10168000FEF7DFFF0620FFF7A7FF4FF48051A648C3
:10169000FEF7D5FF10BD10B50446FFF7EDFFFFF7CD
:1016A000D2FF4FF48051A048FEF7CBFF2020FFF778
:1016B00093FFC4F30740FFF78FFFC4F30720FFF742
:1016C0008BFFE0B2FFF788FF4FF480519648FEF79A
:1016D000B6FFFFF7B8FF10BD10B5FFF7CDFF4FF411
:1016E00080519148FEF7ADFFC720FFF775FF4FF41B
:1016F00080518D48FEF7A3FFFFF7A5FF10BD70B521
:1017000005460C461646FFF7B7FF4FF48051864852
:10171000FEF797FF0220FFF75FFFC4F30740FFF7D4
:101720005BFFC4F30720FFF757FFE0B2FFF754FF5A
:10173000B6F5807F04DD4FF480768BA000F008FCC6
:1017400003E02878FFF748FF6D1C301EA6F1010169
:101750008EB2F6D14FF480517348FEF770FFFFF759
:1017600072FF70BD2DE9F84F07460E4614464FF044
:101770000008C146C2460025AB460020009006F096
:10178000FF0ACAF10000C5B22046E11704EB11615F
:10179000C1F30728E11704EB11610912A4EB012141
:1017A00001F0FF09BAF1000F20D1B8F1000F05D107
:1017B000224631463846FFF7A2FF64E009E04FF4C5
:1017C000807231463846FFF79AFF06F5807607F5B6
:1017D0008077B8F10000A8F1010101F0FF08EED117
:1017E0004A4631463846FFF78AFF4CE0B8F1000F11
:1017F00018D1A94510DDA9EB050000F0FF0B2A4622
:1018000031463846FFF77BFF2E442F445A46314677
:101810003846FFF774FF36E0224631463846FFF778
:101820006EFF30E0601B84B22046E11704EB1161CB
:10183000C1F30728E11704EB11610912A4EB0121A0
:1018400001F0FF092A4631463846FFF758FF2E447B
:101850002F4409E04FF4807231463846FFF74FFFBE
:1018600006F5807607F58077B8F10000A8F1010150
:1018700001F0FF08EED1B9F1000F04D04A4631461D
:101880003846FFF73CFFBDE8F88F70B505460C46BB
:1018900016464FF480512448FEF7D3FE0320FFF78D
:1018A0009BFEC4F30740FFF797FEC4F30720FFF742
:1018B00093FEE0B2FFF790FE04E0FF20FFF78CFEFE
:1018C00028706D1C301EA6F101018EB2F5D14FF4C7
:1018D00080511548FEF7B3FE70BD2DE9F04100249C
:1018E0000025002600274FF480510F48FEF7A9FE7F
:1018F0009F20FFF771FEFF20FFF76EFE0546FF20D9
:10190000FFF76AFE0646FF20FFF766FE07464FF424
:1019100080510548FEF793FE280440EA062040EA7D
:1019200007042046BDE8F081000C0140003800406B
:101930003C3C2D464C4153482D4552524F522D3E72
:101940003E2053504920E7AD89E5BE85E8B685E6DF
:1019500097B6216572726F72436F6465203D2025D2
:10196000640A0000340000203C3C2D464C415348A2
:101970002D4552524F522D3E3E205350495F464C0A
:101980004153485F50616765577269746520746F91
:101990006F206C61726765210A00000010B5002499
:1019A0004FF480514348FEF74CFEAB20FFF714FE86
:1019B000FF20FFF711FEFF20FFF70EFEFF20FFF7CD
:1019C0000BFEFF20FFF708FE04464FF48051394814
:1019D000FEF735FE204610BD10B504464FF4805189
:1019E0003448FEF72EFE0320FFF7F6FDC4F3074050
:1019F000FFF7F2FDC4F30720FFF7EEFDE0B2FFF7BB
:101A0000EBFD10BD10B5FF20FFF7E6FD10BD10B5D2
:101A100004464FF480502849086009E026490868C8
:101A2000411E254A116018B90220FFF7CDFD10BDF7
:101A300002212248FFF7C5F90028EFD021461F48B0
:101A4000FFF76CF94FF480501B49086009E01A4910
:101A50000868411E184A116018B90320FFF7B4FD49
:101A6000E5E701211548FFF7ACF90028EFD013484E
:101A7000FFF756F9DBE710B54FF480510D48FEF73C
:101A8000E0FDB920FFF7A8FD4FF480510948FEF7AB
:101A9000D6FD10BD10B54FF480510648FEF7D1FDBC
:101AA000AB20FFF799FD4FF480510248FEF7C7FDC8
:101AB00010BD0000000C0140340000200038004040
:101AC00000B585B001211020FEF7C8FF0121C80430
:101AD000FEF7D1FF5948FFF7ABF94FF48060ADF83E
:101AE000100003208DF8120018208DF8130004A9AF
:101AF0005348FEF7F7FC4FF40060ADF810000420E7
:101B00008DF8130004A94E48FEF7ECFC4FF4165074
:101B100000900020ADF80400ADF80600ADF8080014
:101B2000ADF80C000C20ADF80A0069464348FFF7F9
:101B3000C2F9012240F225514048FFF754FA012131
:101B40003E48FFF744FA05B000BD00B585B001215D
:101B500044F20400FEF782FF3A48FFF769F94FF4B8
:101B60000070ADF8100003208DF8120018208DF8D9
:101B7000130004A93448FEF7B5FC4FF48060ADF8BB
:101B8000100004208DF8130004A92F48FEF7AAFCCA
:101B90004FF4165000900020ADF80400ADF8060098
:101BA000ADF80800ADF80C000C20ADF80A0069464D
:101BB0002448FFF780F9012240F225512148FFF720
:101BC00012FA01211F48FFF702FA05B000BD10B557
:101BD000FFF7BBFFFFF774FF10BD70B504460D465D
:101BE000E1B21848FFF760FA00BF80211548FFF7FF
:101BF000C9FA0028F9D0204670BD10B5044600BFD0
:101C000020211048FFF7BEFA0028F9D00D48FFF751
:101C10004FFA10BD70B5044600250CA000F098F9ED
:101C200000BF04E0615D0BA000F092F96D1C605DE7
:101C30000028F7D108A000F08BF970BD004C0040DF
:101C400000100140003801400008014062756666DE
:101C50003A000000257820000D0A000030B501464A
:101C6000B1F1807F01D3012030BD21F07F40401EC3
:101C70004FF0E022506150170F22002807DA1307B7
:101C80001D0E4E4B00F00F04241F1D5503E01307DB
:101C90001C0E4B4B1C5400BF00204FF0E022906103
:101CA000072010610020DFE708B54FF4A060FEF7C1
:101CB0004BFB25208DF8000001208DF801008DF8E8
:101CC00002008DF803006846FEF743FB34208DF8D0
:101CD000000001208DF8010002208DF80200684606
:101CE000FEF737FB08BD10B5FFF710FCFFF76FFFDD
:101CF000FFF7DAFF10BD70B50446324800684FF4B4
:101D00007A71B0FBF1F63046FFF7A8FF002508E036
:101D100000BF4FF0E020006900F480300028F8D0C8
:101D20006D1CA542F4D34FF0E020006920F00100C3
:101D30004FF0E021086170BD70B50446214800688D
:101D40002149B0FBF1F63046FFF788FF002508E097
:101D500000BF4FF0E020006900F480300028F8D088
:101D60006D1CA542F4D34FF0E020006920F0010083
:101D70004FF0E021086170BD2DE9F0470646134998
:101D8000304600F037F8814600F066F804464FF41C
:101D90007A7094FBF0F794FBF0F100FB11480025FA
:101DA00004E04FF47A70FFF7A6FF6D1CBD42F8DB2C
:101DB0004046FFF7A0FFBDE8F087000018ED00E007
:101DC00000E400E00000002040420F0000007A44E0
:101DD000D2B201E000F8012B491EFBD2704700226D
:101DE000F6E710B513460A4604461946FFF7F0FF1A
:101DF000204610BD80EA010210B502F00043400009
:101E000022D04A001FD0010E01EB1261C0F3560030
:101E1000C2F3560240F4000042F40002A0FB02208C
:101E200000047F39140400D0401C50EA124001D451
:101E30004000491EC2B20C0604EBD010401C400802
:101E4000802A02D003E0002010BD20F0010000290C
:101E500000DA0020184310BD00F0004220F00040DE
:101E6000C10DC0F3160040F400007F2901DA002004
:101E70007047962903DCC1F19601C84001E096390C
:101E80008840002AF4D0404270472DE9F05F0546B3
:101E9000002092469B4688460646814640241BE029
:101EA000284641464746224600F041F853465A46E6
:101EB000C01A914110D311461846224600F028F866
:101EC0002D1A67EB01084F4622460120002100F041
:101ED0001FF817EB00094E41201EA4F10104DFDCBE
:101EE000484631462A464346BDE8F09F064C074D1A
:101EF00006E0E06840F0010394E8070098471034DA
:101F0000AC42F6D3FEF718F9502200087022000800
:101F1000202A04DB203A00FA02F1002070479140A9
:101F2000C2F1200320FA03F3194390407047202A9E
:101F300004DB203A21FA02F00021704721FA02F373
:101F4000D040C2F12002914008431946704700007A
:101F50000FB4054B10B503A9044A029800F018F815
:101F600010BC5DF814FB0000DB1B000838000020EB
:101F700002E008C8121F08C1002AFAD17047704752
:101F8000002001E001C1121F002AFBD170470000B0
:101F90002DE9FF4F8DB09B460F460446002606E014
:101FA00025280BD05A460F999047641C761C207840
:101FB0000028F5D111B03046BDE8F08F0025A846C5
:101FC0000122984900E0054314F8013F203B02FA42
:101FD00003F00842F7D120782E2817D114F8010F0A
:101FE00045F004052A280ED06FF02F022078A0F1CA
:101FF000300109290AD808EB880102EB410100EB06
:102000000108641CF2E757F8048B641C20786C28E4
:102010000DD004DC4C2812D06A2811D104E07428B9
:102020000DD07A280CD10AE045F4001507E061785C
:1020300045F48015814202D1641C05F58015641CAD
:102040002278692A45D008DC002AB3D0582A69D002
:10205000632A10D0642A08D13BE0702A67D0732A23
:1020600013D0752A5CD0782A5CD010465A460F9956
:102070009047761CD3E017F8040B8DF80000002081
:102080008DF80100E946012003E057F8049B4FF06A
:10209000FF3069074FF0000501D40AE06D1C45458B
:1020A0000DDA8542FADB19F805100029F6D106E0B1
:1020B0006D1C8542FCDB19F805100029F8D12E446F
:1020C00004E019F8010B5A460F9990476D1EF8D29B
:1020D000A5E00A200021CDE90801C5F3025002283D
:1020E0000DD001CFC117031E71F100030DDA4FF0BF
:1020F000000CD0EB0C006CEB01012D2308E0FF1D60
:1021000027F00707F7E80201EDE72B0504D52B239D
:102110008DF8283001233BE0EB0739D02023F7E787
:102120000A2000E010200021CDE9080107E010207E
:10213000002145F00405CDE908014FF00808C5F37A
:10214000025002280FD001CF00214FF0000A2B07C8
:102150001FD5702A0DD0DDE908C38CF0100C5CEAA5
:10216000030C0CD015E0FF1D27F00707F7E802016C
:10217000EBE740228DF828204FF0010A0BE050EAEF
:10218000010306D030238DF828308DF82920022352
:102190009A46582A04D024A20DF120090B9209E096
:1021A00026A2F9E7DDE90823FFF76FFE0B9B9B5C96
:1021B00009F8013D50EA0102F4D1ADEB09002030ED
:1021C0000890680701D44FF001080899884502DD9E
:1021D000A8EB010000E000208046002506E00AA8E8
:1021E0005A46405D0F9990476D1C761C5545F6DBAD
:1021F00004E030205A460F999047761CB8F1000150
:10220000A8F10108F5DC05E019F8010B5A460F9911
:102210009047761C0899481E08900029F4DC641C3D
:10222000C5E6000009280100303132333435363735
:102230003839616263646566000000003031323312
:1022400034353637383941424344454600000000B2
:1022500070220008000000203C000000701F0008F1
:10226000AC2200083C00002064040000801F00082D
:1022700000A24A0400000000000000000102030464
:10228000060708090000000001020304010203041C
:10229000060708090204060800000000000000000C
:0C22A0000000000000A000000000000092
:0400000508000131BD
:00000001FF
