:020000040800F2
:100000003004002045010008691200086B12000846
:100010006F12000873120008771200080000000039
:100020000000000000000000000000007B1200083B
:100030007D120008000000007F12000881120008F5
:100040005F0100085F0100085F0100085F01000810
:100050005F0100085F0100085F0100085F01000800
:100060005F0100085F0100085F0100085F010008F0
:100070005F0100085F0100085F0100085F010008E0
:100080005F0100085F0100085F0100085F010008D0
:100090005F0100085F0100085F0100085F010008C0
:1000A0005F0100085F0100085F0100085F010008B0
:1000B0005F0100085F0100085F0100085F010008A0
:1000C0005F0100085F0100085F0100085F01000890
:1000D0005F010008831200085F0100085F0100084B
:1000E0005F0100085F0100085F0100085F01000870
:1000F0005F0100085F0100085F0100085F01000860
:100100005F0100085F0100085F0100085F0100084F
:100110005F0100085F0100085F0100085F0100083F
:100120005F0100085F0100085F0100085F0100082F
:10013000DFF80CD001F036FC004800473912000807
:10014000300400200648804706480047FEE7FEE7E7
:10015000FEE7FEE7FEE7FEE7FEE7FEE7FEE7FEE777
:1001600047020008310100080CB500200190009002
:100170006C48006840F480306A49086000BF6948F4
:10018000006800F4003000900198401C0190009835
:1001900018B90198B0F5A06FF1D16248006800F479
:1001A000003010B10120009001E000200090009884
:1001B000012843D15C48006840F010005A490860AB
:1001C0000846006820F0030008600846006840F018
:1001D0000200086053484068524948600846406839
:1001E00048600846406840F48060486008464068BF
:1001F00020F47C1048600846406840F4E8104860ED
:100200000846006840F08070086000BF45480068FC
:1002100000F000700028F9D04248406820F0030048
:10022000404948600846406840F00200486000BF0E
:100230003C48406800F00C000828F9D10CBD10B50E
:10024000FFF792FF10BD10B53648006840F001007E
:1002500034490860084640683449084031494860DC
:1002600008460068324908402E4908600846006880
:1002700020F4802008600846406820F4FE004860B2
:100280004FF41F008860FFF7DAFF4FF00060294944
:10029000086010BD10B5002100200022214B5B68D2
:1002A00003F00C0121B1042906D0082928D107E068
:1002B000214B224C236027E01F4B204C236023E07E
:1002C000184B5B6803F47010164B5B6803F48032C4
:1002D000022303EB904022B9194B4343174C236090
:1002E0000DE0104B5B6803F4003323B1144B434320
:1002F000124C236003E0104B4343104C236003E097
:100300000D4B0E4C236000BF00BF064B5B68C3F370
:1003100003130C4CE15C094B1B68CB40074C23607A
:1003200010BD000000100240002002400000FFF855
:10033000FFFFF6FE08ED00E000127A00000000204A
:1003400000093D000400002031490143314A116099
:10035000704770B5002100230F22C47804B32D4CE0
:10036000246804F4E064C4F5E064210AC1F10403E4
:10037000CA40447804FA03F1847814402143090107
:10038000254C0678A155047804F01F050124AC40E3
:1003900005786D11AD0005F1E025C5F8004109E0D3
:1003A000047804F01F050124AC401C4D067876113A
:1003B00045F8264070BD1A4A0A400243154B1B1FE0
:1003C0001A60704739B1134A121D12680243114B6B
:1003D0001B1D1A6006E00F4A121D126882430D4B66
:1003E0001B1D1A607047042808D14FF0E0210969ED
:1003F00041F004014FF0E022116107E04FF0E021ED
:10040000096921F004014FF0E022116170470000FA
:100410000000FA050CED00E000E400E080E100E0FF
:1004200080FFFF1F10B50446CC48844208D101214B
:10043000042000F02DFB0021042000F029FB46E001
:10044000C748844208D10121082000F021FB002187
:10045000082000F01DFB3AE0C248844208D1012187
:10046000102000F015FB0021102000F011FB2EE001
:10047000BD48844208D10121202000F009FB002161
:10048000202000F005FB22E0B848844208D1012179
:10049000402000F0FDFA0021402000F0F9FA16E0BB
:1004A000B348844208D10121802000F0F1FA0021F4
:1004B000802000F0EDFA0AE0AE48844207D1012125
:1004C000801500F0E5FA0021A01500F0E1FA10BD5A
:1004D00010B50121084600F0DBFA0021012000F0F0
:1004E000D7FA10BD2DE9F041024600250026002074
:1004F00000230024002791F803C00CF00F0591F8A9
:1005000003C00CF0100CBCF1000F03D091F802C036
:100510004CEA050591F800C0BCF1000F31D0146819
:1005200000202BE04FF0010C0CFA00F3B1F800C0F2
:100530000CEA03069E4220D183004FF00F0C0CFA08
:1005400003F7BC4305FA03FC4CEA040491F803C02A
:10055000BCF1280F06D14FF0010C0CFA00FCC2F8D8
:1005600014C00AE091F803C0BCF1480F05D14FF068
:10057000010C0CFA00FCC2F810C0401C0828D1D3B2
:100580001460B1F800C0BCF1FF0F34DD54680020E6
:100590002EE000F1080C4FF0010808FA0CF3B1F856
:1005A00000C00CEA03069E4221D183004FF00F0CDD
:1005B0000CFA03F7BC4305FA03FC4CEA040491F877
:1005C00003C0BCF1280F05D100F1080C08FA0CF8A3
:1005D000C2F8148091F803C0BCF1480F07D100F1B4
:1005E000080C4FF0010808FA0CF8C2F81080401C03
:1005F0000828CED35460BDE8F0814FF6FF7101802A
:10060000022181700421C170704702460020936866
:100610000B400BB1012000E00020704701468868C4
:1006200080B2704702460020D3680B400BB1012016
:1006300000E0002070470146C86880B27047016141
:100640007047416170470AB1016100E04161704744
:10065000C16070474FF480320A43826181618261D8
:1006600082698269704702460020434B18684FF642
:100670008073184040EA021008433F4B18607047EF
:100680003E49C8617047F0B50A46002300240021A6
:10069000002500F00046B6F1004F02D1364EF16958
:1006A00001E0354E7168C0F3034583B200F4401693
:1006B000B6F5401F08D121F070612F4E766826F004
:1006C00070662D4F7E6012E000F48016B6F5801F34
:1006D00006D1032606FA05F4A14341F0706106E055
:1006E000460D360103FA06F6B14341F0706122B1BE
:1006F000460D360103FA06F6314300F00046B6F126
:10070000004F02D11C4EF16101E01B4E7160F0BD43
:1007100030B500228B071C0F0F2303FA04F2164B8F
:1007200008338C1053F824309343134C08348D1045
:1007300044F8253023468C1053F824308C07240FBE
:1007400000FA04F423430C4C08348D1044F825308F
:1007500030BD0A49DC3108607047000000080140E4
:10076000000C01400010014000140140001801403D
:10077000001C014000200140000001400000204218
:10078000DF48006840F00100DD4908600846406825
:10079000DC490840DA49486008460068DA49084000
:1007A000D74908600846006820F4802008600846A1
:1007B000406820F4FE0048604FF41F0088607047D6
:1007C000CF49096821F48031CD4A1160114609688A
:1007D00021F480211160B0F5803F03D0B0F5802F67
:1007E0000ED106E0C649096841F48031C44A11605F
:1007F00007E0C349096841F4A021C14A116000E043
:1008000000BF00BF704710B5014600220023002042
:100810004A11012A02D1BA4C236806E0022A02D109
:10082000B74C236A01E0B64C636A01F01F02012451
:1008300094401C400CB1012000E0002010BD38B5F0
:10084000002000900024002500BF3120FFF7DBFFCF
:1008500005460098401C00900098B0F5A06F01D0AC
:10086000002DF2D03120FFF7CEFF08B1012400E0C7
:100870000024204638BD01460020A14A106820F01F
:10088000F80040EAC10010607047A0490860704756
:10089000024600209A4B586820F47C1042EA01037B
:1008A0001843974B5860704798490866704701464F
:1008B0000020934A506820F00300084350607047BE
:1008C0008F48406800F00C007047014600208C4AB9
:1008D000506820F0F0000843506070470146002047
:1008E000874A506820F4E060084350607047014632
:1008F0000020834A506820F4605040EAC1005060F4
:10090000704729B17E4A527A02437D4B5A7204E005
:100910007B4A527A82437A4B5A7270477B49D8316C
:100920000860704701460020754A506820F4404036
:100930000843506070470021714A20321170704A9C
:1009400082F82010012802D004280AD104E00121F5
:100950006B4A2032117005E00521694A203211707E
:1009600000E000BF00BF70476949086070476449F4
:10097000096A0143624A1162704765494439086057
:10098000704730B500210022002400235C4D6D68C3
:1009900005F00C0121B1042905D0082923D105E077
:1009A0005C4D056022E05B4D05601FE0544D6D68B5
:1009B00005F47012524D6D6805F48034022505EB84
:1009C00092421CB9544D554305600BE04C4D6D6887
:1009D00005F400351DB1504D5543056002E04D4D05
:1009E0005543056002E04B4D056000BF00BF444D1C
:1009F0006D6805F0F0010909484D6B5C0568DD4044
:100A000045603F4D6D6805F4E061090A434D6B5C3C
:100A10004568DD4085603A4D6D6805F46051C90A4E
:100A20003E4D6B5C4568DD40C560354D6D6805F435
:100A30004041890B3A4D6B5CC568B5FBF3F5056128
:100A400030BD29B12E4A526902432D4B5A6104E050
:100A50002B4A526982432A4B5A61704729B1284A6E
:100A600092690243264B9A6104E0254A92698243C7
:100A7000234B9A61704729B1214AD2690243204B26
:100A8000DA6104E01E4AD26982431D4BDA61704785
:100A900029B11B4AD2680243194BDA6004E0184AB4
:100AA000D2688243164BDA60704729B1144A126942
:100AB0000243134B1A6104E0114A12698243104B3E
:100AC0001A61704712494039086070470F49C8647D
:100AD00070470B49C87170470948406A40F0807000
:100AE00007494862704701460020054A92680A405B
:100AF0000AB1012000E00020704701498872704768
:100B0000001002400000FFF8FFFFF6FE0000424226
:100B10008004424200127A0000093D0014000020C7
:100B20002400002010B50446BE48844208D10121AB
:100B30008014FFF7ADFF0021A014FFF7A9FF16E016
:100B4000B948844208D101210014FFF7AEFF00210B
:100B50002014FFF7AAFF0AE0B448844207D101211C
:100B6000C013FFF7A2FF0021E013FFF79EFF10BDA7
:100B700010B50022028802F441520B884C882343AE
:100B80008C882343CC8823430C8923434C892343FB
:100B90008C892343CC8923431A430280838B4FF2F1
:100BA000FF74234083830B8A038210BD2DE9F04F2D
:100BB00085B005460C464FF0000902274FF00008AB
:100BC0004FF0010B0026B246A88B4FF240010840BF
:100BD000A88302202884B5F81C90A068022801D1BF
:100BE00000BF38E0A08810B94FF0010B01E04FF0D2
:100BF000020B8D48854200D100E000BF6846FFF738
:100C0000C0FEDDF800A0E088B0F5007F0AD14FEA11
:100C10001A2000EB80004000A168B0FBF1F0401DFD
:100C200086B20BE04FEA4B10BAFBF0F000EB80000D
:100C30004000A168B0FBF1F0401D86B20A20B6FB6F
:100C4000F0F606F00108A6EB0800C0F34F074FF6D8
:100C5000FF7000EA0828022F01DBFF2F02DD0227C8
:100C60004FF00008E08840EA080038432884A08854
:100C7000A1890843618808432188084340F4006043
:100C800040EA0909A5F81C9005B0BDE8F08F0021E5
:100C9000018041808180C180018141818181C18148
:100CA0000721018270470021018041808180C1803D
:100CB0000221816000218181704721B1028842F0C8
:100CC0004002028004E002884FF6BF731A4002809F
:100CD000704721B1828B42F48062828304E0828B70
:100CE0004FF6FF331A408283704730B5002400234B
:100CF0000C110125A540ABB21AB185881D43858032
:100D000002E085889D43858030BD1AB183880B43FE
:100D1000838002E083888B438380704781817047A2
:100D20000146888970474FF6FF62914204D00288DD
:100D300042F48072028004E002884FF6FF631A409A
:100D40000280704721B1828842F00402828004E070
:100D500082884FF6FB731A408280704702884FF2F8
:100D6000FF731A40028002880A430280704701889C
:100D700041F480510180704721B1028842F4005251
:100D8000028004E002884DF6FF731A40028070472B
:100D900002460020012901D0108B00E0908A7047A4
:100DA0000146088A7047B1F5804F04D1028842F4A9
:100DB0008042028004E002884BF6FF731A400280F2
:100DC00070470246002013890B400BB1012000E060
:100DD00000207047CA4302817047F0B502460020E8
:100DE00000240023002501F00F070126BE40B4B205
:100DF0000B1101269E40B3B2968806EA03051689B8
:100E0000264016B10DB1012000E00020F0BD10B564
:100E1000002201F00F040123A3409AB2D3430381BF
:100E200010BD00000030014000380040003C004090
:100E300010B50446FB48844209D101218803FFF71D
:100E400027FE00214FF48040FFF722FE32E0F648F3
:100E5000844209D101214804FFF727FE00214FF405
:100E60000030FFF722FE25E0F048844209D101213D
:100E70008804FFF71AFE00214FF48020FFF715FECB
:100E800018E0EB48844209D10121C804FFF70DFEA8
:100E900000214FF40020FFF708FE0BE0E5488442F4
:100EA00008D101210805FFF700FE00214FF4801052
:100EB000FFF7FBFD10BD2DE9F04786B005460E4655
:100EC0000024A24600BFA1460027B08900B100BFA0
:100ED0002F462C8A4CF6FF700440F08804432C8285
:100EE000AC894EF6F3100440B0883189084371890B
:100EF00008430443AC81AC8A4FF6FF400440B089FC
:100F00000443AC8201A8FFF73CFDC648874202D1EA
:100F1000DDF810A001E0DDF80CA0A88900F4004085
:100F200040B10AEBCA0000EB0A1031684900B0FB7F
:100F3000F1F807E00AEBCA0000EB0A1031688900FB
:100F4000B0FBF1F86420B8FBF0F004012009642143
:100F500001FB1089A88900F4004040B1322000EB69
:100F6000C900B0FBF1F000F00700044308E03220B4
:100F700000EB09106421B0FBF1F000F00F00044316
:100F80002C8106B0BDE8F0874FF4165101600021B6
:100F90008180C18001810C214181002181817047C4
:100FA00010B502460020108A4FF2FF0318400B884C
:100FB0004C8823438C882343CC88234318431082D6
:100FC00010BD0021018041808180C180704721B126
:100FD000828942F40052828104E082894DF6FF73D7
:100FE0001A4082817047F0B5034600240026002590
:100FF000002040F66A17B94200D100BF1846C1F37D
:10100000421401F01F06012707FA06F5012C01D151
:101010000C3004E0022C01D1103000E014301AB181
:1010200007682F43076002E00768AF430760F0BD21
:101030001AB1838A0B43838202E0838A8B438382C3
:101040007047028A4FF6F0731A400282028A0A43FE
:101050000282704782894FF2FF731A40828182892F
:101060000A438281704721B1828942F00202828163
:1010700004E082894FF6FD731A4082817047028A2C
:101080004FF6DF731A400282028A0A4302827047D7
:1010900021B1028A42F48042028204E0028A4BF6C5
:1010A000FF731A4002827047C1F3080282807047C2
:1010B00001468888C0F308007047818941F001012A
:1010C00081817047028BD2B20283028B42EA0122F5
:1010D00002837047028B02F47F420283028B0A4331
:1010E0000283704721B1828A42F02002828204E0AA
:1010F000828A4FF6DF731A408282704721B1828A5A
:1011000042F01002828204E0828A4FF6EF731A40A6
:101110008282704721B1828A42F00802828204E012
:10112000828A4FF6F7731A408282704721B1828912
:1011300042F40042828103E08289C2F30E0282817E
:10114000704721B1828A42F40062828204E0828A7E
:101150004FF2FF731A4082827047828A4FF6FB7308
:101160001A408282828A0A438282704721B1828A2F
:1011700042F00202828204E0828A4FF6FD731A4036
:101180008282704702460020B1F5007F00D100BF87
:1011900013880B400BB1012000E00020704701F4E0
:1011A0000072B2F5007F00D100BFCA4302807047D1
:1011B00070B50246002400230025002040F66A1680
:1011C000B14200D100BFC1F3421501F01F03012657
:1011D00006FA03F3012D02D19689334006E0022D71
:1011E00002D1168A334001E0968A33400C12012660
:1011F00006FA04F41688344013B10CB1012000E063
:10120000002070BD10B50022002340F66A14A142F0
:1012100000D100BF0A1201249440A3B2DC43048031
:1012200010BD00000038014000440040004800406C
:10123000004C004000500040ADF5007D002403E06C
:10124000E0B20DF80400641CB4F5007FF8DB00F098
:1012500003FB00F029F840F299120021684600F0E3
:101260004FF900BFFEE70000704700BFFEE700BF78
:10127000FEE700BFFEE700BFFEE77047704770471C
:10128000704710B540F225510648FFF791FF38B17D
:101290000448FFF70DFFC4B221460248FFF704FFE0
:1012A00010BD00000038014000B587B0012188035F
:1012B000FFF7E1FB01210820FFF7D0FB4FF480503E
:1012C000ADF8040003208DF8060010208DF807000B
:1012D00001A9FB48FFF706F94FF40050ADF80400F0
:1012E00018208DF8070001A9F548FFF7FBF84FF427
:1012F0008040ADF8040001A9F148FFF7F3F84FF47E
:101300000040ADF8040001A9ED48FFF7EBF84FF4F9
:101310008051EB48FFF793F90020ADF808004FF437
:101320008270ADF80A000020ADF80C000220ADF884
:101330000E000120ADF810004002ADF812000820A8
:10134000ADF814000020ADF816000720ADF8180025
:1013500002A9DC48FFF70CFC0121DA48FFF7ADFCDD
:1013600007B000BD10B504462146D7A000F02CFB05
:10137000002010BD10B504464FF48050DF490860CE
:101380000AE0DE490868411EDC4A116020B90020ED
:10139000FFF7E8FFC0B210BD0221CA48FFF711FDF8
:1013A0000028EED02146C748FFF7B8FC4FF4805024
:1013B000D24908600AE0D1490868411ECF4A11604D
:1013C00020B90120FFF7CEFFC0B2E4E70121BD48FC
:1013D000FFF7F7FC0028EED0BA48FFF7A1FCC0B237
:1013E000D9E710B500244FF48051B548FFF729F92B
:1013F0000520FFF7BFFF00BFFF20FFF7BBFF04463C
:1014000004F001000028F7D14FF48051AC48FFF7F9
:1014100016F910BD10B54FF48051A948FFF711F926
:101420000620FFF7A7FF4FF48051A548FFF707F903
:1014300010BD10B50446FFF7EDFFFFF7D2FF4FF4E4
:1014400080519F48FFF7FDF82020FFF793FFC4F37A
:101450000740FFF78FFFC4F30720FFF78BFFE0B2D1
:10146000FFF788FF4FF480519548FFF7E8F8FFF742
:10147000B8FF10BD10B5FFF7CDFF4FF48051904875
:10148000FFF7DFF8C720FFF775FF4FF480518C4856
:10149000FFF7D5F8FFF7A5FF10BD70B505460C4660
:1014A0001646FFF7B7FF4FF480518548FFF7C9F89C
:1014B0000220FFF75FFFC4F30740FFF75BFFC4F3B1
:1014C0000720FFF757FFE0B2FFF754FFB6F5807F24
:1014D00004DD4FF480768AA000F076FA03E02878E5
:1014E000FFF748FF6D1C301EA6F101018EB2F6D148
:1014F0004FF480517248FFF7A2F8FFF772FF70BDFA
:101500002DE9F05F07460E4614464FF00008C1462D
:10151000C2460025AB4606F0FF0ACAF10000C5B27C
:101520002046E11704EB1161C1F30728E11704EB32
:1015300011610912A4EB012101F0FF09BAF1000FBA
:1015400020D1B8F1000F05D1224631463846FFF7C9
:10155000A4FF64E009E04FF4807231463846FFF79B
:101560009CFF06F5807607F58077B8F10000A8F1BA
:10157000010101F0FF08EED14A4631463846FFF737
:101580008CFF4CE0B8F1000F18D1A94510DDA9EB94
:10159000050000F0FF0B2A4631463846FFF77DFF75
:1015A0002E442F445A4631463846FFF776FF36E040
:1015B000224631463846FFF770FF30E0601B84B2A8
:1015C0002046E11704EB1161C1F30728E11704EB92
:1015D00011610912A4EB012101F0FF092A463146ED
:1015E0003846FFF75AFF2E442F4409E04FF480722B
:1015F00031463846FFF751FF06F5807607F58077CC
:10160000B8F10000A8F1010101F0FF08EED1B9F135
:10161000000F04D04A4631463846FFF73EFFBDE88A
:10162000F09F70B505460C4616464FF4805124488D
:10163000FFF707F80320FFF79DFEC4F30740FFF70D
:1016400099FEC4F30720FFF795FEE0B2FFF792FE84
:1016500004E0FF20FFF78EFE28706D1C301EA6F1FF
:1016600001018EB2F5D14FF480511548FEF7E7FF26
:1016700070BD2DE9F04100240025002600274FF41D
:1016800080510F48FEF7DDFF9F20FFF773FEFF201C
:10169000FFF770FE0546FF20FFF76CFE0646FF20B1
:1016A000FFF768FE07464FF480510548FEF7C7FF75
:1016B000280440EA062040EA07042046BDE8F081FD
:1016C000000C0140003800403C3C2D464C41534842
:1016D0002D4552524F522D3E3E2053504920E7ADEA
:1016E00089E5BE85E8B685E697B6216572726F72A8
:1016F000436F6465203D2025640A00002800002017
:101700003C3C2D464C4153482D4552524F522D3EA4
:101710003E205350495F464C4153485F50616765D6
:10172000577269746520746F6F206C6172676521F0
:101730000A00000010B500244FF480514348FEF722
:1017400080FFAB20FFF716FEFF20FFF713FEFF2000
:10175000FFF710FEFF20FFF70DFEFF20FFF70AFE48
:1017600004464FF480513948FEF769FF204610BD0A
:1017700010B504464FF480513448FEF762FF032051
:10178000FFF7F8FDC4F30740FFF7F4FDC4F30720AB
:10179000FFF7F0FDE0B2FFF7EDFD10BD10B5FF2043
:1017A000FFF7E8FD10BD10B504464FF480502849FE
:1017B000086009E026490868411E254A116018B9E9
:1017C0000220FFF7CFFD10BD02212248FFF7F9FAF2
:1017D0000028EFD021461F48FFF7A0FA4FF48050B1
:1017E0001B49086009E01A490868411E184A11603F
:1017F00018B90320FFF7B6FDE5E701211548FFF70B
:10180000E0FA0028EFD01348FFF78AFADBE710B5BB
:101810004FF480510D48FEF714FFB920FFF7AAFDE1
:101820004FF480510948FEF70AFF10BD10B54FF480
:1018300080510648FEF705FFAB20FFF79BFD4FF4F4
:1018400080510248FEF7FBFE10BD0000000C014075
:10185000280000200038004000B587B04FF4A06099
:10186000FEF772FD25208DF8040001208DF805009B
:101870008DF806008DF8070001A8FEF76AFD01212A
:101880000420FFF7EBF801218803FFF7E7F80121B7
:101890004804FFF7F0F84FF40070ADF81800182076
:1018A0008DF81B0003208DF81A0006A92F48FEF7BB
:1018B00019FE0420ADF8180006A92C48FEF712FE08
:1018C0004FF48060ADF8180004208DF81B0006A9C5
:1018D0002648FEF707FE0820ADF8180006A92348A1
:1018E000FEF700FE4FF4E13002900020ADF80C004E
:1018F000ADF80E00ADF81000ADF814000C20ADF8F6
:10190000120002A91A48FFF7D6FA01211848FFF77A
:101910005EFB012240F225511548FFF764FB02A946
:101920001448FFF7C8FA01211248FFF750FB07B02F
:1019300000BD70B504460D46E1B20D48FFF7B4FB9B
:1019400000BF80210A48FFF71DFC0028F9D020467F
:1019500070BD10B5044600BF20210548FFF712FCFA
:101960000028F9D00248FFF7A3FB10BD0008014092
:10197000003801400044004030B50B4601460020CD
:101980002022012409E021FA02F59D4205D303FA41
:1019900002F5491B04FA02F52844151EA2F10102C2
:1019A000F1DC30BD064C074D06E0E06840F0010375
:1019B00094E8070098471034AC42F6D3FEF7BCFB1E
:1019C0005C1B00087C1B00080FB4054B10B503A975
:1019D000044A029800F018F810BC5DF814FB0000EF
:1019E000331900082C00002002E008C8121F08C1AB
:1019F000002AFAD170477047002001E001C1121F90
:101A0000002AFBD1704700002DE9FF4F89B09B46AB
:101A10000446002506E025280BD05A460B9990472E
:101A2000641C6D1C20780028F5D10DB02846BDE857
:101A3000F08F0027B8460122474900E0074314F819
:101A4000013F203B02FA03F00842F7D120782E280C
:101A500019D114F8010F47F004072A280ED06FF0AF
:101A60002F022078A0F1300109290CD808EB880159
:101A700002EB410100EB0108641CF2E70A98641CC8
:101A800050F8048B0A9020780028CED0642808D023
:101A9000692806D075281ED05A460B9990476D1CB0
:101AA00058E00A994FF00A0901C90A91002802DAA0
:101AB00040422D2102E0390504D52B218DF820105C
:101AC000012103E0F90704D02021F7E78A4608AE98
:101AD0000DE00021FAE70A994FF00A0901C90A91BD
:101AE000F7E74946FFF748FF303106F8011D0028A7
:101AF000F7D1ADEB060000F12009780701D44FF0D3
:101B00000108C84502DDA8EB090000E0002080467E
:101B1000002706E008A85A46C05D0B9990476D1C47
:101B20007F1C5745F6DB04E030205A460B9990475E
:101B30006D1CB8F10001A8F10108F5DC05E016F80C
:101B4000010B5A460B9990476D1CB9F10001A9F1A0
:101B50000109F4DC641C65E7092801007C1B00080E
:101B60000000002030000000E8190008AC1B00084D
:101B70003000002000040000F819000800A24A0408
:101B8000000000000000000001020304060708092D
:101B90000000000001020304010203040607080913
:0C1BA0000204060800A000000000000085
:0400000508000131BD
:00000001FF
