:020000040800F2
:100000003004002045010008312200083322000896
:10001000372200083B2200083F22000800000000B1
:100020000000000000000000000000004322000863
:10003000452200080000000047220008492200086D
:100040005F0100085F0100085F0100085F01000810
:100050005F0100085F0100085F0100085F01000800
:100060005F0100085F0100085F0100085F010008F0
:100070005F0100085F0100085F0100085F010008E0
:100080005F0100085F0100085F0100085F010008D0
:100090005F0100085F0100085F0100085F010008C0
:1000A0005F0100085F0100085F0100085F010008B0
:1000B0005F0100085F0100085F0100085F010008A0
:1000C0005F0100085F0100085F0100085F01000890
:1000D0005F0100084B2200085F0100085F01000873
:1000E0005F0100085F0100085F0100085F01000870
:1000F0005F0100085F0100085F0100085F01000860
:100100005F0100085F0100085F0100085F0100084F
:100110005F0100085F0100085F0100085F0100083F
:100120005F0100085F0100085F0100085F0100082F
:10013000DFF80CD002F0E4FF00480047E12100089E
:10014000300400200648804706480047FEE7FEE7E7
:10015000FEE7FEE7FEE7FEE7FEE7FEE7FEE7FEE777
:1001600047020008310100080CB500200190009002
:100170006C48006840F480306A49086000BF6948F4
:10018000006800F4003000900198401C0190009835
:1001900018B90198B0F5A06FF1D16248006800F479
:1001A000003010B10120009001E000200090009884
:1001B000012843D15C48006840F010005A490860AB
:1001C0000846006820F0030008600846006840F018
:1001D0000200086053484068524948600846406839
:1001E00048600846406840F48060486008464068BF
:1001F00020F47C1048600846406840F4E8104860ED
:100200000846006840F08070086000BF45480068FC
:1002100000F000700028F9D04248406820F0030048
:10022000404948600846406840F00200486000BF0E
:100230003C48406800F00C000828F9D10CBD10B50E
:10024000FFF792FF10BD10B53648006840F001007E
:1002500034490860084640683449084031494860DC
:1002600008460068324908402E4908600846006880
:1002700020F4802008600846406820F4FE004860B2
:100280004FF41F008860FFF7DAFF4FF00060294944
:10029000086010BD10B5002100200022214B5B68D2
:1002A00003F00C0121B1042906D0082928D107E068
:1002B000214B224C236027E01F4B204C236023E07E
:1002C000184B5B6803F47010164B5B6803F48032C4
:1002D000022303EB904022B9194B4343174C236090
:1002E0000DE0104B5B6803F4003323B1144B434320
:1002F000124C236003E0104B4343104C236003E097
:100300000D4B0E4C236000BF00BF064B5B68C3F370
:1003100003130C4CE15C094B1B68CB40074C23607A
:1003200010BD000000100240002002400000FFF855
:10033000FFFFF6FE08ED00E000127A00000000204A
:1003400000093D000400002031490143314A116099
:10035000704770B5002100230F22C47804B32D4CE0
:10036000246804F4E064C4F5E064210AC1F10403E4
:10037000CA40447804FA03F1847814402143090107
:10038000254C0678A155047804F01F050124AC40E3
:1003900005786D11AD0005F1E025C5F8004109E0D3
:1003A000047804F01F050124AC401C4D067876113A
:1003B00045F8264070BD1A4A0A400243154B1B1FE0
:1003C0001A60704739B1134A121D12680243114B6B
:1003D0001B1D1A6006E00F4A121D126882430D4B66
:1003E0001B1D1A607047042808D14FF0E0210969ED
:1003F00041F004014FF0E022116107E04FF0E021ED
:10040000096921F004014FF0E022116170470000FA
:100410000000FA050CED00E000E400E080E100E0FF
:1004200080FFFF1F10B50121480700F004FC0021E8
:100430004FF0005000F0FFFB10BD30B5002200234C
:100440005A4C226840F6FE748440A243D1E900452C
:100450002C438D682C43CD6844EA050303FA00F46D
:100460002243524C226030BD002101604160816016
:10047000C160704739B14D4A1268012383401A4365
:100480004A4B1A6006E0494A1268012383409A43A6
:10049000464B1A60704741B1444A12684FF480538A
:1004A00083401A43414B1A6007E0404A12684FF4F8
:1004B000805383409A433D4B1A60704710B551B149
:1004C0003A4A121D126804090123A3401A43374B0C
:1004D0001B1D1A6009E0354A121D12680409012328
:1004E000A3409A43314B1B1D1A6010BD40B12F49E8
:1004F000091D096841F003012C4A121D116007E033
:100500002A49091D096821F00301284A121D1160BA
:10051000704710B53AB1254B1B6801FA00F423432C
:10052000224C236006E0214B1B6801FA00F4A34330
:100530001E4C236010BD08B5002200921B4A009299
:1005400000F10802009B1A440092009A116008BD55
:1005500008B500220092154A009200F11402009B97
:100560001A440092009A116008BD30B5002400239F
:10057000082802D142EA012401E042EA01440B4B7F
:1005800000F120052B441C6030BD08B50146002059
:100590000090064800902C2000EB9100009A104437
:1005A00000900098006880B208BD00000074004010
:1005B00010B50446CC48844208D10121042000F043
:1005C0002DFB0021042000F029FB46E0C7488442AF
:1005D00008D10121082000F021FB0021082000F0B3
:1005E0001DFB3AE0C248844208D10121102000F0EE
:1005F00015FB0021102000F011FB2EE0BD488442C5
:1006000008D10121202000F009FB0021202000F06A
:1006100005FB22E0B848844208D10121402000F0C7
:10062000FDFA0021402000F0F9FA16E0B3488442B8
:1006300008D10121802000F0F1FA0021802000F093
:10064000EDFA0AE0AE48844207D10121801500F09E
:10065000E5FA0021A01500F0E1FA10BD10B5012166
:10066000084600F0DBFA0021012000F0D7FA10BDA7
:100670002DE9F04102460025002600200023002439
:10068000002791F803C00CF00F0591F803C00CF09F
:10069000100CBCF1000F03D091F802C04CEA050524
:1006A00091F800C0BCF1000F31D0146800202BE09D
:1006B0004FF0010C0CFA00F3B1F800C00CEA03068D
:1006C0009E4220D183004FF00F0C0CFA03F7BC437D
:1006D00005FA03FC4CEA040491F803C0BCF1280FAE
:1006E00006D14FF0010C0CFA00FCC2F814C00AE06D
:1006F00091F803C0BCF1480F05D14FF0010C0CFA82
:1007000000FCC2F810C0401C0828D1D31460B1F816
:1007100000C0BCF1FF0F34DD546800202EE000F172
:10072000080C4FF0010808FA0CF3B1F800C00CEA0D
:1007300003069E4221D183004FF00F0C0CFA03F701
:10074000BC4305FA03FC4CEA040491F803C0BCF175
:10075000280F05D100F1080C08FA0CF8C2F8148033
:1007600091F803C0BCF1480F07D100F1080C4FF01D
:10077000010808FA0CF8C2F81080401C0828CED3F3
:100780005460BDE8F0814FF6FF7101800221817055
:100790000421C17070470246002093680B400BB1E2
:1007A000012000E0002070470146886880B2704751
:1007B00002460020D3680B400BB1012000E000206E
:1007C00070470146C86880B2704701617047416157
:1007D00070470AB1016100E041617047C160704734
:1007E0004FF480320A438261816182618269826949
:1007F000704702460020434B18684FF6807318403C
:1008000040EA021008433F4B186070473E49C861F8
:100810007047F0B50A46002300240021002500F0AF
:100820000046B6F1004F02D1364EF16901E0354E77
:100830007168C0F3034583B200F44016B6F5401F5B
:1008400008D121F070612F4E766826F070662D4F2A
:100850007E6012E000F48016B6F5801F06D10326F4
:1008600006FA05F4A14341F0706106E0460D360139
:1008700003FA06F6B14341F0706122B1460D36012C
:1008800003FA06F6314300F00046B6F1004F02D1FC
:100890001C4EF16101E01B4E7160F0BD30B50022CD
:1008A0008B071C0F0F2303FA04F2164B08338C102E
:1008B00053F824309343134C08348D1044F82530FA
:1008C00023468C1053F824308C07240F00FA04F4CC
:1008D00023430C4C08348D1044F8253030BD0A49B0
:1008E000DC3108607047000000080140000C014046
:1008F000001001400014014000180140001C01409C
:10090000002001400000014000002042DF48006854
:1009100040F00100DD49086008464068DC490840B5
:10092000DA49486008460068DA490840D749086053
:100930000846006820F4802008600846406820F4DB
:10094000FE0048604FF41F0088607047CF49096877
:1009500021F48031CD4A11601146096821F48021CB
:100960001160B0F5803F03D0B0F5802F0ED106E0C6
:10097000C649096841F48031C44A116007E0C3499F
:10098000096841F4A021C14A116000E000BF00BF26
:10099000704710B501460022002300204A11012AA9
:1009A00002D1BA4C236806E0022A02D1B74C236A6E
:1009B00001E0B64C636A01F01F02012494401C4020
:1009C0000CB1012000E0002010BD38B500200090DF
:1009D0000024002500BF3120FFF7DBFF054600980B
:1009E000401C00900098B0F5A06F01D0002DF2D00F
:1009F0003120FFF7CEFF08B1012400E0002420469B
:100A000038BD01460020A14A106820F0F80040EAF5
:100A1000C10010607047A04908607047024600207E
:100A20009A4B586820F47C1042EA01031843974B14
:100A30005860704798490866704701460020934AFD
:100A4000506820F003000843506070478F484068AA
:100A500000F00C007047014600208C4A506820F0DE
:100A6000F00008435060704701460020874A5068F4
:100A700020F4E06008435060704701460020834A3C
:100A8000506820F4605040EAC1005060704729B1BE
:100A90007E4A527A02437D4B5A7204E07B4A527A74
:100AA00082437A4B5A7270477B49D831086070474D
:100AB00001460020754A506820F4404008435060C9
:100AC00070470021714A20321170704A82F820105C
:100AD000012802D004280AD104E001216B4A203207
:100AE000117005E00521694A2032117000E000BF55
:100AF00000BF70476949086070476449096A01434B
:100B0000624A11627047654944390860704730B5E0
:100B100000210022002400235C4D6D6805F00C01CB
:100B200021B1042905D0082923D105E05C4D0560D9
:100B300022E05B4D05601FE0544D6D6805F47012B6
:100B4000524D6D6805F48034022505EB92421CB9C4
:100B5000544D554305600BE04C4D6D6805F4003570
:100B60001DB1504D5543056002E04D4D55430560A4
:100B700002E04B4D056000BF00BF444D6D6805F0BD
:100B8000F0010909484D6B5C0568DD4045603F4D4B
:100B90006D6805F4E061090A434D6B5C4568DD4012
:100BA00085603A4D6D6805F46051C90A3E4D6B5C35
:100BB0004568DD40C560354D6D6805F44041890BE1
:100BC0003A4D6B5CC568B5FBF3F5056130BD29B1E5
:100BD0002E4A526902432D4B5A6104E02B4A526956
:100BE00082432A4B5A61704729B1284A92690243CD
:100BF000264B9A6104E0254A92698243234B9A610D
:100C0000704729B1214AD2690243204BDA6104E0DE
:100C10001E4AD26982431D4BDA61704729B11B4AD3
:100C2000D2680243194BDA6004E0184AD268824362
:100C3000164BDA60704729B1144A12690243134B0C
:100C40001A6104E0114A12698243104B1A6170471D
:100C500012494039086070470F49C86470470B4912
:100C6000C87170470948406A40F08070074948627F
:100C7000704701460020054A92680A400AB10120E7
:100C800000E0002070470149887270470010024060
:100C90000000FFF8FFFFF6FE0000424280044242DF
:100CA00000127A0000093D001400002024000020FA
:100CB00010B50446BE48844208D101218014FFF7D4
:100CC000ADFF0021A014FFF7A9FF16E0B948844248
:100CD00008D101210014FFF7AEFF00212014FFF717
:100CE000AAFF0AE0B448844207D10121C013FFF7EC
:100CF000A2FF0021E013FFF79EFF10BD10B50022F8
:100D0000028802F441520B884C8823438C88234389
:100D1000CC8823430C8923434C8923438C89234368
:100D2000CC8923431A430280838B4FF2FF74234004
:100D300083830B8A038210BD2DE9F04F85B00546F1
:100D40000C464FF0000902274FF000084FF0010B4E
:100D50000026B246A88B4FF240010840A88302202B
:100D60002884B5F81C90A068022801D100BF38E0A3
:100D7000A08810B94FF0010B01E04FF0020B8D4835
:100D8000854200D100E000BF6846FFF7C0FEDDF8F5
:100D900000A0E088B0F5007F0AD14FEA1A2000EBEE
:100DA00080004000A168B0FBF1F0401D86B20BE06E
:100DB0004FEA4B10BAFBF0F000EB80004000A16856
:100DC000B0FBF1F0401D86B20A20B6FBF0F606F04B
:100DD0000108A6EB0800C0F34F074FF6FF7000EACA
:100DE0000828022F01DBFF2F02DD02274FF0000849
:100DF000E08840EA080038432884A088A189084395
:100E0000618808432188084340F4006040EA0909EA
:100E1000A5F81C9005B0BDE8F08F0021018041804D
:100E20008180C180018141818181C181072101824D
:100E300070470021018041808180C1800221816052
:100E400000218181704721B1028842F04002028076
:100E500004E002884FF6BF731A400280704721B148
:100E6000828B42F48062828304E0828B4FF6FF33F0
:100E70001A408283704730B5002400230C110125ED
:100E8000A540ABB21AB185881D43858002E08588F4
:100E90009D43858030BD1AB183880B43838002E077
:100EA00083888B438380704781817047014688899E
:100EB00070474FF6FF62914204D0028842F480727C
:100EC000028004E002884FF6FF631A4002807047F8
:100ED00021B1828842F00402828004E082884FF6C9
:100EE000FB731A408280704702884FF2FF731A40EA
:100EF000028002880A4302807047018841F48051D1
:100F00000180704721B1028842F40052028004E05F
:100F100002884DF6FF731A40028070470246002097
:100F2000012901D0108B00E0908A70470146088AA1
:100F30007047B1F5804F04D1028842F480420280AC
:100F400004E002884BF6FF731A40028070470246A5
:100F5000002013890B400BB1012000E000207047F6
:100F6000CA4302817047F0B50246002000240023E6
:100F7000002501F00F070126BE40B4B20B11012677
:100F80009E40B3B2968806EA03051689264016B13C
:100F90000DB1012000E00020F0BD10B5002201F0ED
:100FA0000F040123A3409AB2D343038110BD000074
:100FB0000030014000380040003C004010B50446BD
:100FC000FE48844208D10121C014FFF727FE00210A
:100FD000E014FFF723FEC4E0B4F1804F08D10121F3
:100FE0000846FFF728FE00210120FFF724FEB8E0A5
:100FF000F348844208D101210220FFF71CFE0021A2
:101000000220FFF718FEACE0EE48844208D101212F
:101010000420FFF710FE00210420FFF70CFEA0E0E3
:10102000E948844208D101210820FFF704FE00218D
:101030000820FFF700FE94E0E448844208D1012133
:101040001020FFF7F8FD00211020FFF7F4FD88E0E5
:10105000DF48844208D101212020FFF7ECFD002168
:101060002020FFF7E8FD7CE0DA48844208D1012126
:101070004014FFF7D3FD00216014FFF7CFFD70E0AF
:10108000D548844209D10121C804FFF7C7FD0021DA
:101090004FF40020FFF7C2FD63E0D048844209D13D
:1010A00001210805FFF7BAFD00214FF48010FFF77A
:1010B000B5FD56E0CA48844209D101214805FFF731
:1010C000ADFD00214FF40010FFF7A8FD49E0C54831
:1010D000844208D101214020FFF7ADFD00214020CE
:1010E000FFF7A9FD3DE0C048844208D101218020DE
:1010F000FFF7A1FD00218020FFF79DFD31E0BB48F7
:10110000844208D101218015FFF795FD0021A0152B
:10111000FFF791FD25E0B648844209D1012108047A
:10112000FFF77CFD00214FF48030FFF777FD18E0DA
:10113000B048844209D101214804FFF76FFD002126
:101140004FF40030FFF76AFD0BE0AB48844208D152
:1011500001218804FFF762FD00214FF48020FFF792
:101160005DFD10BD00220288944B98420ED0994B31
:1011700098420BD0B0F1804F08D0914B984205D0E7
:10118000904B984202D0904B984204D14FF68F7307
:101190001A404B881A438D4B984207D08C4B98428B
:1011A00004D04FF6FF431A40CB881A4302808B8845
:1011B00083850B880385814B98420BD0854B9842E1
:1011C00008D08B4B984205D08A4B984202D08A4B6C
:1011D000984201D10B7A038601238382704770B550
:1011E000002400220023058C4FF6FE76354005844E
:1011F000028C8388048B4FF68F752C40B51E2C40D3
:101200000D882C43751E2A400D892A434D882A4398
:101210006A4DA8420BD06F4DA84208D0744DA84229
:1012200005D0744DA84202D0734DA84213D14FF699
:10123000F7752A404D892A434FF6FB752A408D8861
:101240002A434FF6FF652B404FF6FF552B408D8903
:101250002B43CD892B4383800483CD8885860284EC
:1012600070BD70B5002400220023058C4FF6EF7688
:1012700035400584028C8388048B48F6FF752C402A
:101280004FF6FF452C400D884FF6FF7606EA052500
:101290002C434FF6DF752A400D8906EA05152A43CF
:1012A0004D8806EA05152A43444DA84202D0494D0F
:1012B000A8421DD14FF67F752A404D894FF6FF7623
:1012C00006EA05152A434FF6BF752A408D8806EABF
:1012D00005152A434FF6FF352B404FF2FF752B4083
:1012E0008D8906EA85052B43CD8906EA85052B43C2
:1012F00083800483CD880587028470BD70B5002487
:1013000000220023058C4FF6FF6635400584028CD1
:101310008388848B4FF68F752C404FF6FC752C40DC
:101320000D882C434FF6FF552A400D894FF6FF7666
:1013300006EA05252A434D8806EA05252A431F4D5E
:10134000A84202D0234DA8421DD14FF2FF752A407A
:101350004D894FF6FF7606EA05252A434FF6FF35FD
:101360002A408D8806EA05252A434EF6FF752B4054
:101370004DF6FF752B408D8906EA05152B43CD8967
:1013800006EA05152B4383808483CD8885870284F4
:1013900070BD70B5002200230024058C4EF6FF7648
:1013A00035400584038C8488828B48F6FF752A407B
:1013B0004FF6FF452A400D8820E00000002C014038
:1013C0000004004000080040000C004000100040F5
:1013D0000014004000340140004C01400050014026
:1013E0000054014000180040001C00400020004054
:1013F0000040014000440140004801404FF6FF76A4
:1014000006EA05252A434DF6FF752B400D8906EAAD
:1014100005352B434D8806EA05352B43FA4DA84286
:1014200002D0FA4DA84208D14BF6FF752C408D89A9
:101430004FF6FF7606EA85152C4384808283CD889B
:10144000A0F84050038470BD828B4FF2FF331A40E6
:101450008283828B4FF6FF7303EA01231A43828350
:101460007047F0B50C461546002200210026078C77
:101470004EF6FF7C07EA0C070784828B018C4FF63F
:10148000FF7707EA043640F6FF473A404FF6FF770A
:1014900007EA05273A434FF6FF7707EA03373A434F
:1014A000D94FB8420ED0D94FB8420BD0B0F1804FCF
:1014B00008D0D74FB84205D0D64FB84202D0D64F49
:1014C000B84206D14DF6FF77394046F4805739438C
:1014D00005E047F6FF57394044F48057394382838B
:1014E0000184F0BD828B4FF6F3731A408283828BA6
:1014F0000A4382837047F0B50C461546002200214E
:101500000026078C4FF6FF6C07EA0C070784828BD6
:10151000018C4FF6FF7707EA04264FF60C773A4026
:101520004FF6FF7707EA03172F433A43B64FB84207
:101530000ED0B64FB8420BD0B0F1804F08D0B44FA8
:10154000B84205D0B34FB84202D0B34FB84206D12B
:101550004FF6FF57394046F48077394305E04FF2A4
:10156000FF57394044F48077394382830184F0BDCA
:10157000028B4FF2FF331A400283028B4FF6FF7348
:1015800003EA01231A4302837047F0B50C4615465F
:10159000002200210026078C4FF6EF7C07EA0C079B
:1015A0000784028B018C4FF6FF7707EA041640F69A
:1015B000FF473A404FF6FF7707EA03373A434FF6C3
:1015C000FF7707EA05273A438F4FB8420ED08F4F77
:1015D000B8420BD0B0F1804F08D08D4FB84205D043
:1015E0008C4FB84202D08C4FB84206D14FF6DF770D
:1015F000394046F01007394305E04FF65F77394030
:1016000044F01007394302830184F0BD028B4FF68A
:10161000F3731A400283028B0A4302837047F0B5CA
:101620000C46154600220021068C4FF6FE773E4000
:101630000684028B018C4FF60C7632407E1C06EA43
:1016400003162E433243704EB0420ED06F4EB0425E
:101650000BD0B0F1804F08D06D4EB04205D06D4E2A
:10166000B04202D06C4EB04206D14FF6FD7631400A
:1016700044F00106314305E04FF6F576314044F081
:101680000106314302830184F0BD70B505460C4666
:101690005D4885420ED05D4885420BD0B5F1804F44
:1016A00008D05B48854205D05A48854202D05A4846
:1016B000854200D100E000BF208850B92389A2886C
:1016C00061882846FFF7ABFFE1882846FFF79EFFB9
:1016D00025E0208804280AD12389A2886188284629
:1016E000FFF753FFE1882846FFF742FF17E0208805
:1016F00008280AD12389A28861882846FFF7FBFEC3
:10170000E1882846FFF7EEFE09E02389A288618878
:101710002846FFF7A6FEE1882846FFF795FE70BD34
:101720002DE9F04105460C4600260127608808B9DE
:10173000022600E00026A088012801D1022700E04F
:1017400001272088A0B92389A28861882846FFF74D
:1017500066FFE1882846FFF759FF23893A4631465C
:101760002846FFF712FFE1882846FFF701FF13E044
:101770002389A28861882846FFF707FFE188284669
:10178000FFF7F6FE23893A4631462846FFF747FF22
:10179000E1882846FFF73AFFBDE8F0810A884B88C8
:1017A0001A438B881A43CB881A430B891A434B89F7
:1017B0001A438B891A43A0F8442070474FF6FF71F3
:1017C000818000210180C180418001727047002129
:1017D000018041808180C180018141818181C181FD
:1017E0007047002101804180012181800021C1805A
:1017F000018170470021018041808180C180018189
:101800004181818170470000002C0140003401407B
:101810000004004000080040000C004021B1028894
:1018200042F00102028004E002884FF6FE731A4083
:101830000280704731B1B0F8442042F40042A0F871
:10184000442005E0B0F84420C2F30E02A0F8442082
:1018500070471AB183890B43838102E083898B43EC
:10186000838170478182704741EA0203A0F84830C3
:1018700070471AB183890B43838102E083898B43CC
:101880008381704701894FF6F872114001817047DA
:101890000A46002101894FF68F73194011430181D7
:1018A000704730B504460D4629462046FFF7F0FF45
:1018B000208940F00700208130BD2DE9F041044629
:1018C0000D4616461F46602D06D13B460122314685
:1018D0002046FFF75AFE05E03B46012231462046EE
:1018E000FFF79DFE29462046FFF7D2FF208940F0F2
:1018F00007002081BDE8F08130B50C460021018948
:10190000C9B24FF6FF7505EA032515432543294360
:10191000018130BD2DE9F04105460E461746984637
:10192000002443463A4631462846FFF7E5FF2C8916
:101930004FF6F870044044F007044FF68F700440EF
:1019400044F070042C81BDE8F081F0B504460D46EA
:1019500016461F463B46324629462046FFF7CCFF37
:10196000208940F480402081F0BD0185828270474B
:101970000A46002101884FF68F73194011430180F8
:101980007047F0B50C4615461E4600210022002384
:101990000189028B038C4FF6F877394021434FF6CB
:1019A000FC473A4040F201173A434FF6DD773B409F
:1019B0004FF6FF7707EA06172F433B430181028367
:1019C0000384F0BD0A460021018B4FF68F73194046
:1019D0001143018370470A460021018B48F6FF73CB
:1019E00019404FF6FF7303EA02231943018370473E
:1019F0000A460021818B4FF68F7319401143818372
:101A000070470A460021818B48F6FF7319404FF654
:101A1000FF7303EA022319438183704721B10288CF
:101A200042F08002028004E002884FF67F731A4081
:101A30000280704721B1828842F00402828004E073
:101A400082884FF6FB731A408280704721B18288EA
:101A500042F00802828004E082884FF6F7731A4051
:101A60008280704721B1828842F00102828004E0C6
:101A700082884FF6FE731A40828070470A46002122
:101A8000018B4FF6F77319401143018370470A46E3
:101A90000021018B4FF2FF7319404FF6FF7303EAE9
:101AA00002231943018370470A460021818B4FF6B8
:101AB000F77319401143818370470A460021818BD7
:101AC0004FF2FF7319404FF6FF7303EA02231943E5
:101AD000818370470A460021018B4FF6FB73194042
:101AE0001143018370470A460021018B4FF6FF33F3
:101AF00019404FF6FF7303EA02231943018370472D
:101B00000A460021818B4FF6FB73194011438183F4
:101B100070470A460021818B4FF6FF3319404FF67C
:101B2000FF7303EA02231943818370470A460021A9
:101B3000018B4FF67F7319401143018370470A46AA
:101B40000021018BC1F30E014FF6FF7303EA02235C
:101B50001943018370470A460021818B4FF67F733A
:101B600019401143818370470A460021818BC1F3DC
:101B70000E014FF6FF7303EA022319438183704776
:101B80000A460021018C4FF6FD7319401143018470
:101B900070470A460021018C4FF6F7731940114334
:101BA000018470470A460021018C4FF6DF7319400B
:101BB0004FF6FF7303EA02131943018470470A4684
:101BC0000021018C4FF67F7319404FF6FF7303EA33
:101BD00002131943018470470A460021018C4FF615
:101BE000FF5319404FF6FF7303EA022319430184A0
:101BF00070470A460021018C4FF2FF7319404FF6DF
:101C0000FF7303EA02231943018470470A46002147
:101C1000018C4DF6FF7319404FF6FF7303EA023350
:101C200019430184704730B5002301248C40A3B2CE
:101C3000048C9C430484048C02FA01F5ADB22C435D
:101C4000048430BD30B5002304248C40A3B2048C3E
:101C50009C430484048C02FA01F5ADB22C43048445
:101C600030BD70B503460020002418461830012509
:101C70008D40ACB21D8CA5431D8409B1082909D142
:101C800000EB6100056825F07005056005681543E7
:101C900005600EE00D1FC5F34E052844056825F4C8
:101CA000E045056005684FF6FF7606EA02263543F3
:101CB000056070BD21B1028842F00202028004E09A
:101CC00002884FF6FD731A400280704721B10288E6
:101CD00042F00402028004E002884FF6FB731A40CF
:101CE0000280704721B1828842F08002828004E045
:101CF00082884FF67F731A408280704702884FF6C1
:101D0000F7731A40028002880A4302807047828873
:101D10004FF68F731A40828082880A438280704710
:101D200002894FF6F8731A40028102890A43028140
:101D3000704702894FF67F731A40028102890A4375
:101D40000281704781847047818570478186704722
:101D50000187704781877047A0F84010704702885C
:101D60004FF6FF431A40028002880A430280704700
:101D70000146888E70470146088F70470146888F5C
:101D800070470146B1F8400070470146888C7047A3
:101D90000146088D704702460020138A0B400BB1A4
:101DA000012000E000207047CA430282704730B52E
:101DB0000246002000230024158A05EA01039589C4
:101DC00005EA010413B10CB1012000E0002030BD90
:101DD000CA4302827047000010B50446FB488442A3
:101DE00009D101218803FEF719FF00214FF480403B
:101DF000FEF714FF32E0F648844209D1012148047D
:101E0000FEF719FF00214FF40030FEF714FF25E024
:101E1000F048844209D101218804FEF70CFF00211B
:101E20004FF48020FEF707FF18E0EB48844209D109
:101E30000121C804FEF7FFFE00214FF40020FEF749
:101E4000FAFE0BE0E548844208D101210805FEF7BF
:101E5000F2FE00214FF48010FEF7EDFE10BD2DE9DB
:101E6000F04786B005460E460024A24600BFA146B4
:101E70000027B08900B100BF2F462C8A4CF6FF70B6
:101E80000440F08804432C82AC894EF6F3100440E1
:101E9000B08831890843718908430443AC81AC8A16
:101EA0004FF6FF400440B0890443AC8201A8FEF71E
:101EB0002EFEC648874202D1DDF810A001E0DDF811
:101EC0000CA0A88900F4004040B10AEBCA0000EB66
:101ED0000A1031684900B0FBF1F807E00AEBCA00CC
:101EE00000EB0A1031688900B0FBF1F86420B8FB00
:101EF000F0F004012009642101FB1089A88900F495
:101F0000004040B1322000EBC900B0FBF1F000F01E
:101F10000700044308E0322000EB09106421B0FB05
:101F2000F1F000F00F0004432C8106B0BDE8F0870B
:101F30004FF41651016000218180C18001810C2184
:101F4000418100218181704710B502460020108A2E
:101F50004FF2FF0318400B884C8823438C8823439F
:101F6000CC8823431843108210BD0021018041809A
:101F70008180C180704721B1828942F40052828100
:101F800004E082894DF6FF731A4082817047F0B5F4
:101F90000346002400260025002040F66A17B942B7
:101FA00000D100BF1846C1F3421401F01F060127FB
:101FB00007FA06F5012C01D10C3004E0022C01D106
:101FC000103000E014301AB107682F43076002E0B8
:101FD0000768AF430760F0BD1AB1838A0B43838261
:101FE00002E0838A8B4383827047028A4FF6F07344
:101FF0001A400282028A0A430282704782894FF2A3
:10200000FF731A40828182890A438281704721B11D
:10201000828942F00202828104E082894FF6FD73D8
:102020001A4082817047028A4FF6DF731A4002829B
:10203000028A0A430282704721B1028A42F4804236
:10204000028204E0028A4BF6FF731A400282704754
:10205000C1F308028280704701468888C0F30800F7
:102060007047818941F0010181817047028BD2B2B2
:102070000283028B42EA012202837047028B02F440
:102080007F420283028B0A430283704721B1828A16
:1020900042F02002828204E0828A4FF6DF731A4007
:1020A0008282704721B1828A42F01002828204E06B
:1020B000828A4FF6EF731A408282704721B1828A7A
:1020C00042F00802828204E0828A4FF6F7731A40D7
:1020D0008282704721B1828942F40042828103E00A
:1020E0008289C2F30E028281704721B1828A42F452
:1020F0000062828204E0828A4FF2FF731A40828279
:102100007047828A4FF6FB731A408282828A0A43A2
:102110008282704721B1828A42F00202828204E008
:10212000828A4FF6FD731A40828270470246002071
:10213000B1F5007F00D100BF13880B400BB1012027
:1021400000E00020704701F40072B2F5007F00D17A
:1021500000BFCA430280704770B5024600240023C6
:102160000025002040F66A16B14200D100BFC1F33D
:10217000421501F01F03012606FA03F3012D02D1D7
:102180009689334006E0022D02D1168A334001E0E1
:10219000968A33400C12012606FA04F4168834405D
:1021A00013B10CB1012000E0002070BD10B5002279
:1021B000002340F66A14A14200D100BF0A12012494
:1021C0009440A3B2DC43048010BD000000380140FD
:1021D0000044004000480040004C004000500040D7
:1021E00070B500240F4D00F0D9FB02210E48FEF718
:1021F000ECFA00BF0EE000BF01210C48FEF7CBFA5D
:102200000028F9D0641C00BF01210848FEF7C3FA7A
:102210000128F9D0642CEED102210348FEF7D7FA49
:10222000002070BD85EB3140001C014000180140CA
:10223000704700BFFEE700BFFEE700BFFEE700BF3C
:10224000FEE7704770477047704710B540F2255160
:102250000648FFF781FF38B10448FFF7FDFEC4B21E
:1022600021460248FFF7F4FE10BD0000003801408F
:1022700000B587B001218803FEF7C3FC01210820C7
:10228000FEF7B2FC4FF48050ADF8040003208DF847
:10229000060010208DF8070001A9FC48FEF7E8F9B8
:1022A0004FF40050ADF8040018208DF8070001A984
:1022B000F648FEF7DDF94FF48040ADF8040001A9BF
:1022C000F248FEF7D5F94FF40040ADF8040001A93B
:1022D000EE48FEF7CDF94FF48051EC48FEF775FA61
:1022E0000020ADF808004FF48270ADF80A0000201D
:1022F000ADF80C000220ADF80E000120ADF8100082
:102300004002ADF812000820ADF814000020ADF82E
:1023100016000720ADF8180002A9DD48FEF7EEFC14
:102320000121DB48FEF78FFD07B000BD10B5044664
:102330002146D8A000F0F6FE002010BD10B50446DE
:102340004FF48050E04908600AE0DF490868411E08
:10235000DD4A116020B90020FFF7E8FFC0B210BDD0
:102360000221CB48FEF7F3FD0028EED02146C848F5
:10237000FEF79AFD4FF48050D34908600AE0D24935
:102380000868411ED04A116020B90120FFF7CEFF36
:10239000C0B2E4E70121BE48FEF7D9FD0028EED027
:1023A000BB48FEF783FDC0B2D9E710B500244FF457
:1023B0008051B648FEF70BFA0520FFF7BFFF00BFBC
:1023C000FF20FFF7BBFF044604F001000028F7D10F
:1023D0004FF48051AD48FEF7F8F910BD10B54FF439
:1023E0008051AA48FEF7F3F90620FFF7A7FF4FF444
:1023F0008051A648FEF7E9F910BD10B50446FFF775
:10240000EDFFFFF7D2FF4FF48051A048FEF7DFF950
:102410002020FFF793FFC4F30740FFF78FFFC4F3BB
:102420000720FFF78BFFE0B2FFF788FF4FF48051E2
:102430009648FEF7CAF9FFF7B8FF10BD10B5FFF7D1
:10244000CDFF4FF480519148FEF7C1F9C720FFF747
:1024500075FF4FF480518D48FEF7B7F9FFF7A5FFE0
:1024600010BD70B505460C461646FFF7B7FF4FF492
:1024700080518648FEF7ABF90220FFF75FFFC4F3F7
:102480000740FFF75BFFC4F30720FFF757FFE0B2F9
:10249000FFF754FFB6F5807F04DD4FF480768BA004
:1024A00000F040FE03E02878FFF748FF6D1C301E67
:1024B000A6F101018EB2F6D14FF480517348FEF7B8
:1024C00084F9FFF772FF70BD2DE9F84F07460E46FD
:1024D00014464FF00008C146C2460025AB46002016
:1024E000009006F0FF0ACAF10000C5B22046E117CD
:1024F00004EB1161C1F30728E11704EB1161091224
:10250000A4EB012101F0FF09BAF1000F20D1B8F1CD
:10251000000F05D1224631463846FFF7A2FF64E09E
:1025200009E04FF4807231463846FFF79AFF06F50E
:10253000807607F58077B8F10000A8F1010101F07D
:10254000FF08EED14A4631463846FFF78AFF4CE095
:10255000B8F1000F18D1A94510DDA9EB050000F076
:10256000FF0B2A4631463846FFF77BFF2E442F44A7
:102570005A4631463846FFF774FF36E02246314668
:102580003846FFF76EFF30E0601B84B22046E1174B
:1025900004EB1161C1F30728E11704EB1161091283
:1025A000A4EB012101F0FF092A4631463846FFF726
:1025B00058FF2E442F4409E04FF4807231463846CC
:1025C000FFF74FFF06F5807607F58077B8F100003A
:1025D000A8F1010101F0FF08EED1B9F1000F04D01C
:1025E0004A4631463846FFF73CFFBDE8F88F70B5E4
:1025F00005460C4616464FF480512448FEF7E7F88E
:102600000320FFF79BFEC4F30740FFF797FEC4F3D8
:102610000720FFF793FEE0B2FFF790FE04E0FF20F3
:10262000FFF78CFE28706D1C301EA6F101018EB2E2
:10263000F5D14FF480511548FEF7C7F870BD2DE96C
:10264000F04100240025002600274FF480510F4858
:10265000FEF7BDF89F20FFF771FEFF20FFF76EFE2B
:102660000546FF20FFF76AFE0646FF20FFF766FEDD
:1026700007464FF480510548FEF7A7F8280440EAC2
:10268000062040EA07042046BDE8F081000C014026
:10269000003800403C3C2D464C4153482D45525299
:1026A0004F522D3E3E2053504920E7AD89E5BE856F
:1026B000E8B685E697B6216572726F72436F6465FE
:1026C000203D2025640A0000280000203C3C2D46C7
:1026D0004C4153482D4552524F522D3E3E205350AF
:1026E000495F464C4153485F506167655772697452
:1026F0006520746F6F206C61726765210A000000AD
:1027000010B500244FF480514348FEF760F8AB2029
:10271000FFF714FEFF20FFF711FEFF20FFF70EFE6C
:10272000FF20FFF70BFEFF20FFF708FE04464FF4E3
:1027300080513948FEF749F8204610BD10B50446CF
:102740004FF480513448FEF742F80320FFF7F6FDBE
:10275000C4F30740FFF7F2FDC4F30720FFF7EEFDD7
:10276000E0B2FFF7EBFD10BD10B5FF20FFF7E6FD6F
:1027700010BD10B504464FF480502849086009E0A8
:1027800026490868411E254A116018B90220FFF742
:10279000CDFD10BD02212248FEF7D9FB0028EFD065
:1027A00021461F48FEF780FB4FF480501B4908600C
:1027B00009E01A490868411E184A116018B9032037
:1027C000FFF7B4FDE5E701211548FEF7C0FB00283F
:1027D000EFD01348FEF76AFBDBE710B54FF48051EA
:1027E0000D48FDF7F4FFB920FFF7A8FD4FF4805125
:1027F0000948FDF7EAFF10BD10B54FF480510648B7
:10280000FDF7E5FFAB20FFF799FD4FF4805102483B
:10281000FDF7DBFF10BD0000000C01402800002088
:102820000038004000B585B001214FF4C010FEF71C
:10283000E8F9012144F21400FEF7D6F903208DF8DF
:10284000120018208DF813004FF40070ADF810003E
:1028500004A93948FDF70CFF4FF48060ADF8100073
:1028600004A93648FDF704FF4FF48050ADF810007E
:1028700004A93248FDF7FCFE04208DF81300000285
:10288000ADF8100004A92C48FDF7F2FE4FF40060EB
:10289000ADF8100004A92948FDF7EAFE0420ADF8C0
:1028A000100004A92648FDF7E3FE4FF4E130009044
:1028B0000020ADF80400ADF80600ADF80800ADF852
:1028C0000C000C20ADF80A0069461E48FFF7C7FA55
:1028D00001211C48FFF74FFB69461B48FFF7BFFA71
:1028E00001211948FFF747FB69461848FFF7B7FA77
:1028F00001211648FFF73FFB05B000BD70B5044647
:102900000D46E1B20F48FFF7A3FB00BF80210D4841
:10291000FFF70CFC0028F9D0204670BD10B5044626
:1029200000BF20210748FFF701FC0028F9D0054827
:10293000FFF792FB10BD00000008014000100140AD
:102940000014014000380140004C0040005000409D
:1029500030B50146B1F1807F01D3012030BD21F0B7
:102960007F40401E4FF0E022506150170F22002898
:1029700007DA13071D0E614B00F00F04241F1D55CD
:1029800003E013071C0E5E4B1C5400BF00204FF0E9
:10299000E0229061072010610020DFE710B5FFF70B
:1029A00067FC00F0B9F8FFF73DFF4FF48071554820
:1029B000FDF70BFF4FF400715248FDF706FF4FF48F
:1029C00080615048FDF701FF4FF400614D48FDF76D
:1029D000FCFE4FF400614C48FDF7F7FE10BD70B5EA
:1029E00004464A4800684FF47A71B0FBF1F630466D
:1029F000FFF7AEFF002508E000BF4FF0E0200069C0
:102A000000F480300028F8D06D1CA542F4D34FF0BC
:102A1000E020006920F001004FF0E021086170BD66
:102A200070B50446394800683949B0FBF1F63046C4
:102A3000FFF78EFF002508E000BF4FF0E02000699F
:102A400000F480300028F8D06D1CA542F4D34FF07C
:102A5000E020006920F001004FF0E021086170BD26
:102A60002DE9F04706462B49304600F0D3FA81465F
:102A700000F002FB04464FF47A7094FBF0F794FBED
:102A8000F0F100FB1148002504E04FF47A70FFF7E5
:102A9000A6FF6D1CBD42F8DB4046FFF7A0FFBDE876
:102AA000F08708B54FF4A060FDF74EFC36208DF896
:102AB000000001208DF8010003208DF802000020A5
:102AC0008DF803006846FDF744FC08BD10B54FF4CF
:102AD0007A70FFF784FF172000F004F8282000F038
:102AE00001F810BD00F01F0201219140420992003F
:102AF00002F1E022C2F800117047000018ED00E07A
:102B000000E400E000140140000801400000002043
:102B100040420F0000007A4430B58DB00121FE48DC
:102B2000FEF76FF801214FF4FE70FEF75DF8032009
:102B30008DF8160014208DF817004FF48070ADF852
:102B4000140005A9F548FDF793FD4FF40070ADF8AA
:102B5000140005A9F148FDF78BFD4FF48060ADF836
:102B6000140005A9ED48FDF783FD4FF40060ADF8B2
:102B7000140005A9E948FDF77BFD4FF40060ADF8AE
:102B8000140005A9E648FDF773FD4FF48050ADF839
:102B9000140005A9E248FDF76BFD8020ADF8140094
:102BA00005A9E048FDF764FD10208DF8170001200D
:102BB000ADF8140005A9DC48FDF75AFD0220ADF878
:102BC000140005A9D848FDF753FD0420ADF8140002
:102BD00005A9D548FDF74CFD0820ADF8140005A95E
:102BE000D148FDF745FD1020ADF8140005A9CE48E9
:102BF000FDF73EFD2020ADF8140005A9CA48FDF7F9
:102C000037FD4FF48040ADF8140005A9C548FDF725
:102C10002FFD4FF40040ADF8140005A9C148FDF7A1
:102C200027FD0220ADF8140005A9BE48FDF720FDE0
:102C30000420ADF8140005A9BA48FDF719FD0820D5
:102C4000ADF8140005A9B748FDF712FD1020ADF846
:102C5000140005A9B348FDF70BFD4FF48050ADF803
:102C6000140005A9AD48FDF703FD4FF40050ADF881
:102C7000140005A9A948FDF7FBFC4FF48040ADF80E
:102C8000140005A9A548FDF7F3FC4FF40040ADF88A
:102C9000140005A9A148FDF7EBFC2020ADF81400B5
:102CA00005A9A048FDF7E4FC4020ADF8140005A9F3
:102CB0009C48FDF7DDFC4FF48070ADF8140005A9C9
:102CC0009848FDF7D5FC10208DF8170028208DF8C6
:102CD00017004FF40070ADF8140005A99148FDF7F6
:102CE000C7FC4FF48060ADF8140005A98D48FDF7CE
:102CF000BFFC0120ADF8140005A98A48FDF7B8FC17
:102D00002020ADF8140005A98848FDF7B1FC4FF468
:102D10000040ADF8140005A98548FDF7A9FC002086
:102D20008DF817001020ADF8140005A97C48FDF7B8
:102D30009FFC2020ADF8140005A97948FDF798FC08
:102D400018208DF817004020ADF8140005A974482C
:102D5000FDF78EFC8020ADF8140005A97048FDF742
:102D600087FC0120ADF8140005A97048FDF780FC30
:102D70000220ADF8140005A96C48FDF779FC40204D
:102D8000ADF8140005A96948FDF772FC8020ADF884
:102D9000140005A96548FDF76BFC4FF48070ADF891
:102DA000140005A96148FDF763FC4FF40070ADF80D
:102DB000140005A95D48FDF75BFC0120ADF8140087
:102DC00005A95748FDF754FC0220ADF8140005A9E9
:102DD0005348FDF74DFC0420ADF8140005A95048F8
:102DE000FDF746FC0820ADF8140005A94C48FDF796
:102DF0003FFC42F20F70ADF82C008F20ADF8280098
:102E00000020ADF82E00ADF82A000AA94948FEF7C7
:102E1000A9F90AA94848FEF7A5F90AA94748FEF703
:102E2000A1F97020ADF818000120ADF81A000020BB
:102E3000ADF81E000220ADF8200006A93D48FEF7BF
:102E4000CEF908213B48FEF719FE06A93948FEF7DE
:102E500008FA08213748FEF71AFE06A93548FEF79A
:102E60004DFA08213348FEF71FFE06A93148FEF748
:102E700090FA08212F48FEF720FE06A92E48FEF7FB
:102E8000AEF908212C48FEF7F9FD06A92A48FEF7FD
:102E9000E8F908212848FEF7FAFD06A92648FEF7BA
:102EA0002DFA08212448FEF7FFFD06A92248FEF767
:102EB00070FA08212048FEF700FE06A91F48FEF719
:102EC0008EF908211D48FEF7D9FD06A91B48FEF71B
:102ED000C8F908211948FEF7DAFD06A91748FEF7D8
:102EE0000DFA08211548FEF7DFFD06A91348FEF785
:102EF00050FA08211148FEF7E0FD01210D48FEF7C8
:102F00008DFD01210B48FEF789FC01210A48FEF7DF
:102F100085FD0121084813E00E0000200014014047
:102F20000008014000180140001C0140000C014055
:102F3000002001400004004000080040000C004058
:102F4000FEF76CFC01213048FEF768FD01212E4898
:102F5000FEF764FC00200190029003900220049090
:102F600001A91020FDF769FA01211020FDF782FA6E
:102F70000024204600F099F885B229460020FDF78C
:102F8000E7FA0DB030BD10B512E041F288301F49AC
:102F9000088080211E48FDF71AFC00BF4FF48061B5
:102FA0001B48FDF7F8FB0028F8D01420FFF717FDA9
:102FB0004FF480611648FDF7EEFB0028E5D00020B5
:102FC0001249088010BD10B512E041F288300F4957
:102FD000088080210E48FDF7F8FB00BF4FF4007118
:102FE0000B48FDF7D8FB0028F8D01420FFF7F7FCBA
:102FF0004FF400710648FDF7CEFB0028E5D0002015
:103000000249088010BD0000000C00403408004058
:103010000018014080EA010210B502F000434000B0
:1030200022D04A001FD0010E01EB1261C0F35600FE
:10303000C2F3560240F4000042F40002A0FB02205A
:1030400000047F39140400D0401C50EA124001D41F
:103050004000491EC2B20C0604EBD010401C4008D0
:10306000802A02D003E0002010BD20F001000029DA
:1030700000DA0020184310BD00F0004220F00040AC
:10308000C10DC0F3160040F400007F2901DA0020D2
:103090007047962903DCC1F19601C84001E09639DA
:1030A0008840002AF4D04042704720F00040C10D13
:1030B000C0F3160040F400007F2901DA00207047B9
:1030C000962903DCC1F19601C840704796398840C3
:1030D000704730B50B46014600202022012409E04C
:1030E00021FA02F59D4205D303FA02F5491B04FAC1
:1030F00002F52844151EA2F10102F1DC30BD0000EA
:10310000064C074D06E0E06840F0010394E8070034
:1031100098471034AC42F6D3FDF70EF8B8320008E9
:10312000D83200080FB4054B10B503A9044A029821
:1031300000F018F810BC5DF814FB0000FD28000832
:103140002C00002002E008C8121F08C1002AFAD192
:1031500070477047002001E001C1121F002AFBD117
:10316000704700002DE9FF4F89B09B4604460025BB
:1031700006E025280BD05A460B999047641C6D1C1D
:1031800020780028F5D10DB02846BDE8F08F002743
:10319000B8460122474900E0074314F8013F203BAD
:1031A00002FA03F00842F7D120782E2819D114F83A
:1031B000010F47F004072A280ED06FF02F02207865
:1031C000A0F1300109290CD808EB880102EB41017C
:1031D00000EB0108641CF2E70A98641C50F8048BA9
:1031E0000A9020780028CED0642808D0692806D01C
:1031F00075281ED05A460B9990476D1C58E00A99C5
:103200004FF00A0901C90A91002802DA40422D2133
:1032100002E0390504D52B218DF82010012103E0AF
:10322000F90704D02021F7E78A4608AE0DE0002117
:10323000FAE70A994FF00A0901C90A91F7E74946E6
:10324000FFF747FF303106F8011D0028F7D1ADEB3D
:10325000060000F12009780701D44FF00108C845A5
:1032600002DDA8EB090000E000208046002706E010
:1032700008A85A46C05D0B9990476D1C7F1C5745A6
:10328000F6DB04E030205A460B9990476D1CB8F1EC
:103290000001A8F10108F5DC05E016F8010B5A461B
:1032A0000B9990476D1CB9F10001A9F10109F4DCFB
:1032B000641C65E709280100D832000800000020DE
:1032C00030000000443100080833000830000020BE
:1032D000000400005431000800A24A04000000006D
:1032E00000000000010203040607080900000000B6
:1032F0000102030401020304060708090204060888
:0833000000A000000000000025
:0400000508000131BD
:00000001FF
